{
  "contractName": "CompositionPart",
  "abi": [
    {
      "inputs": [
        {
          "name": "_endTime",
          "type": "uint256"
        },
        {
          "name": "_noteToken",
          "type": "address"
        }
      ],
      "payable": false,
      "stateMutability": "nonpayable",
      "type": "constructor"
    },
    {
      "constant": false,
      "inputs": [
        {
          "name": "_pitches",
          "type": "uint256[]"
        },
        {
          "name": "_places",
          "type": "uint256[]"
        },
        {
          "name": "_numNotes",
          "type": "uint256"
        }
      ],
      "name": "placeNotes",
      "outputs": [],
      "payable": false,
      "stateMutability": "nonpayable",
      "type": "function"
    },
    {
      "constant": false,
      "inputs": [
        {
          "name": "_pitches",
          "type": "uint256[]"
        },
        {
          "name": "_places",
          "type": "uint256[]"
        },
        {
          "name": "_numNotes",
          "type": "uint256"
        }
      ],
      "name": "removeNotes",
      "outputs": [],
      "payable": false,
      "stateMutability": "nonpayable",
      "type": "function"
    },
    {
      "constant": true,
      "inputs": [
        {
          "name": "_pitch",
          "type": "uint256"
        }
      ],
      "name": "getNoteLine",
      "outputs": [
        {
          "name": "",
          "type": "bool[100]"
        }
      ],
      "payable": false,
      "stateMutability": "view",
      "type": "function"
    },
    {
      "constant": true,
      "inputs": [
        {
          "name": "_pitch",
          "type": "uint256"
        },
        {
          "name": "_place",
          "type": "uint256"
        }
      ],
      "name": "getNote",
      "outputs": [
        {
          "name": "",
          "type": "bool"
        }
      ],
      "payable": false,
      "stateMutability": "view",
      "type": "function"
    },
    {
      "constant": true,
      "inputs": [],
      "name": "getPlacedNotes",
      "outputs": [
        {
          "name": "",
          "type": "uint256[]"
        },
        {
          "name": "",
          "type": "uint256[]"
        }
      ],
      "payable": false,
      "stateMutability": "view",
      "type": "function"
    }
  ],
  "bytecode": "0x6060604052341561000f57600080fd5b6040516040806111da833981016040528080519060200190919080519060200190919050508161340181905550806000806101000a81548173ffffffffffffffffffffffffffffffffffffffff021916908373ffffffffffffffffffffffffffffffffffffffff160217905550505061114d8061008d6000396000f30060606040526004361061006d576000357c0100000000000000000000000000000000000000000000000000000000900463ffffffff16806302ccee0214610072578063874a7036146100d15780638bc19c041461011c57806399d0f06c146101ce578063db491e8014610219575b600080fd5b341561007d57600080fd5b610093600480803590602001909190505061025d565b6040518082606460200280838360005b838110156100be5780820151818401526020810190506100a3565b5050505090500191505060405180910390f35b34156100dc57600080fd5b61011a6004808035906020019082018035906020019190919290803590602001908201803590602001919091929080359060200190919050506102ec565b005b341561012757600080fd5b61012f610766565b604051808060200180602001838103835285818151815260200191508051906020019060200280838360005b8381101561017657808201518184015260208101905061015b565b50505050905001838103825284818151815260200191508051906020019060200280838360005b838110156101b857808201518184015260208101905061019d565b5050505090500194505050505060405180910390f35b34156101d957600080fd5b610217600480803590602001908201803590602001919091929080359060200190820180359060200191909192908035906020019091905050610973565b005b341561022457600080fd5b6102436004808035906020019091908035906020019091905050610d21565b604051808215151515815260200191505060405180910390f35b610265611035565b61026d611035565b60018360808110151561027c57fe5b600402016064806020026040519081016040528092919082606480156102dc576020028201916000905b82829054906101000a900460ff161515815260200190600101906020826000010492830192600103820291508084116102a65790505b5050505050905080915050919050565b60006102f6611060565b613401544210151561030757600080fd5b8686808060200260200160405190810160405280939291908181526020018383602002808284378201915050505050508585808060200260200160405190810160405280939291908181526020018383602002808284378201915050505050508460008251845114151561037a57600080fd5b600a84511115151561038b57600080fd5b81845114151561039a57600080fd5b600090505b835181101561046a57607f84828151811015156103b857fe5b9060200190602002015111806103e55750606383828151811015156103d957fe5b90602001906020020151115b156103ef57600080fd5b600184828151811015156103ff57fe5b9060200190602002015160808110151561041557fe5b60040201838281518110151561042757fe5b9060200190602002015160648110151561043d57fe5b602091828204019190069054906101000a900460ff161561045d57600080fd5b808060010191505061039f565b6000809054906101000a900473ffffffffffffffffffffffffffffffffffffffff1673ffffffffffffffffffffffffffffffffffffffff166323b872dd33308a6000604051602001526040518463ffffffff167c0100000000000000000000000000000000000000000000000000000000028152600401808473ffffffffffffffffffffffffffffffffffffffff1673ffffffffffffffffffffffffffffffffffffffff1681526020018373ffffffffffffffffffffffffffffffffffffffff1673ffffffffffffffffffffffffffffffffffffffff1681526020018281526020019350505050602060405180830381600087803b151561056a57600080fd5b6102c65a03f1151561057b57600080fd5b50505060405180519050151561059057600080fd5b600095505b8a8a9050861015610759578a8a8781811015156105ae57fe5b9050602002013585600001818152505088888781811015156105cc57fe5b9050602002013585602001818152505061340260003373ffffffffffffffffffffffffffffffffffffffff1673ffffffffffffffffffffffffffffffffffffffff168152602001908152602001600020805480600101828161062e919061107a565b9160005260206000209060020201600087909190915060008201518160000155602082015181600101555050506001808c8c89818110151561066c57fe5b9050602002013560808110151561067f57fe5b600402018a8a89818110151561069157fe5b905060200201356064811015156106a457fe5b602091828204019190066101000a81548160ff021916908315150217905550336102018c8c8981811015156106d557fe5b905060200201356080811015156106e857fe5b606402018a8a8981811015156106fa57fe5b9050602002013560648110151561070d57fe5b0160006101000a81548173ffffffffffffffffffffffffffffffffffffffff021916908373ffffffffffffffffffffffffffffffffffffffff1602179055508580600101965050610595565b5050505050505050505050565b61076e6110ac565b6107766110ac565b60006107806110ac565b6107886110ac565b600061340260003373ffffffffffffffffffffffffffffffffffffffff1673ffffffffffffffffffffffffffffffffffffffff168152602001908152602001600020805490509350836040518059106107de5750595b90808252806020026020018201604052509250836040518059106107ff5750595b90808252806020026020018201604052509150600090505b61340260003373ffffffffffffffffffffffffffffffffffffffff1673ffffffffffffffffffffffffffffffffffffffff168152602001908152602001600020805490508110156109655761340260003373ffffffffffffffffffffffffffffffffffffffff1673ffffffffffffffffffffffffffffffffffffffff168152602001908152602001600020818154811015156108af57fe5b90600052602060002090600202016000015483828151811015156108cf57fe5b906020019060200201818152505061340260003373ffffffffffffffffffffffffffffffffffffffff1673ffffffffffffffffffffffffffffffffffffffff1681526020019081526020016000208181548110151561092a57fe5b906000526020600020906002020160010154828281518110151561094a57fe5b90602001906020020181815250508080600101915050610817565b828295509550505050509091565b6000806000613401544210151561098957600080fd5b878780806020026020016040519081016040528093929190818152602001838360200280828437820191505050505050868680806020026020016040519081016040528093929190818152602001838360200280828437820191505050505050856000825184511415156109fc57600080fd5b600a845111151515610a0d57600080fd5b818451141515610a1c57600080fd5b600090505b8351811015610b285760808482815181101515610a3a57fe5b906020019060200201511180610a67575060648382815181101515610a5b57fe5b90602001906020020151115b15610a7157600080fd5b3373ffffffffffffffffffffffffffffffffffffffff166102018583815181101515610a9957fe5b90602001906020020151608081101515610aaf57fe5b606402018483815181101515610ac157fe5b90602001906020020151606481101515610ad757fe5b0160009054906101000a900473ffffffffffffffffffffffffffffffffffffffff1673ffffffffffffffffffffffffffffffffffffffff16141515610b1b57600080fd5b8080600101915050610a21565b600096505b8b8b9050871015610c21578b8b888181101515610b4657fe5b9050602002013595508989888181101515610b5d57fe5b9050602002013594506000600187608081101515610b7757fe5b6004020186606481101515610b8857fe5b602091828204019190066101000a81548160ff021916908315150217905550600061020187608081101515610bb957fe5b6064020186606481101515610bca57fe5b0160006101000a81548173ffffffffffffffffffffffffffffffffffffffff021916908373ffffffffffffffffffffffffffffffffffffffff160217905550610c14338787610d66565b8680600101975050610b2d565b6000809054906101000a900473ffffffffffffffffffffffffffffffffffffffff1673ffffffffffffffffffffffffffffffffffffffff1663a9059cbb338a6000604051602001526040518363ffffffff167c0100000000000000000000000000000000000000000000000000000000028152600401808373ffffffffffffffffffffffffffffffffffffffff1673ffffffffffffffffffffffffffffffffffffffff16815260200182815260200192505050602060405180830381600087803b1515610ced57600080fd5b6102c65a03f11515610cfe57600080fd5b505050604051805190501515610d1357600080fd5b505050505050505050505050565b600080600184608081101515610d3357fe5b6004020183606481101515610d4457fe5b602091828204019190069054906101000a900460ff1690508091505092915050565b60008061340260008673ffffffffffffffffffffffffffffffffffffffff1673ffffffffffffffffffffffffffffffffffffffff168152602001908152602001600020805490509150600090505b8181101561102e578361340260008773ffffffffffffffffffffffffffffffffffffffff1673ffffffffffffffffffffffffffffffffffffffff16815260200190815260200160002082815481101515610e0a57fe5b906000526020600020906002020160000154148015610e8657508261340260008773ffffffffffffffffffffffffffffffffffffffff1673ffffffffffffffffffffffffffffffffffffffff16815260200190815260200160002082815481101515610e7257fe5b906000526020600020906002020160010154145b156110215761340260008673ffffffffffffffffffffffffffffffffffffffff1673ffffffffffffffffffffffffffffffffffffffff16815260200190815260200160002060018303815481101515610edb57fe5b906000526020600020906002020161340260008773ffffffffffffffffffffffffffffffffffffffff1673ffffffffffffffffffffffffffffffffffffffff16815260200190815260200160002082815481101515610f3657fe5b9060005260206000209060020201600082015481600001556001820154816001015590505061340260008673ffffffffffffffffffffffffffffffffffffffff1673ffffffffffffffffffffffffffffffffffffffff16815260200190815260200160002060018303815481101515610fab57fe5b9060005260206000209060020201600080820160009055600182016000905550506001820361340260008773ffffffffffffffffffffffffffffffffffffffff1673ffffffffffffffffffffffffffffffffffffffff1681526020019081526020016000208161101b91906110c0565b5061102e565b8080600101915050610db4565b5050505050565b610c80604051908101604052806064905b600015158152602001906001900390816110465790505090565b604080519081016040528060008152602001600081525090565b8154818355818115116110a7576002028160020283600052602060002091820191016110a691906110f2565b5b505050565b602060405190810160405280600081525090565b8154818355818115116110ed576002028160020283600052602060002091820191016110ec91906110f2565b5b505050565b61111e91905b8082111561111a576000808201600090556001820160009055506002016110f8565b5090565b905600a165627a7a7230582097feb224fd3e67ffb2ef5e600847d60edbcac0b506d628e3b9d2d52be0330e700029",
  "source": "pragma solidity ^0.4.18;\n\nimport './NoteToken.sol';\n\ncontract CompositionPart {\n    //note struct, holds pitch and place\n    struct noteId {\n        uint256 pitch;\n        uint256 place;\n    }\n\n    //token contract\n    NoteToken notes;\n\n    //2d graph of notes and places, represents midi values 0-127 and position,\n    bool[100][128] composition;\n    //2d graph representing who owns a placed note\n    address[100][128] composers;\n    \n    //time when composing freezes\n    uint endTime;\n\n    //keeps track of notes placed by an address\n    mapping (address => noteId[]) ownedNotes;\n    //keeps track of an addresses remaing notes\n    mapping (address => uint) noteBalances;\n\n    modifier beforeEndTime() {\n        require(now < endTime);\n        _;\n    }\n\n    modifier afterEndTime() {\n        require(now > endTime);\n        _;\n    }\n\n    modifier placeValidNotes(uint[] _pitches, uint[] _places, uint256 _numNotes) {\n        require(_pitches.length == _places.length);\n        require(_pitches.length <= 10);\n        require(_pitches.length == _numNotes);\n\n        for (uint256 i = 0; i < _pitches.length; i++) {\n            if (_pitches[i] > 127 || _places[i] > 99) {\n                revert();\n            } else if (composition[_pitches[i]][_places[i]]) {\n                revert();\n            } \n        }\n        _;\n    }\n\n    modifier removeValidNotes(uint[] _pitches, uint[] _places, uint256 _numNotes) {\n        require(_pitches.length == _places.length);\n        require(_pitches.length <= 10);\n        require(_pitches.length == _numNotes);\n\n        for (uint256 i = 0; i < _pitches.length; i++) {\n            if (_pitches[i] > 128 || _places[i] > 100) {\n                revert();\n            } else if (composers[_pitches[i]][_places[i]] != msg.sender) {\n                revert();\n            }\n        }\n        _;\n    }\n    \n    //constructor\n    function CompositionPart(uint _endTime, address _noteToken) public {\n        endTime = _endTime;\n        notes = NoteToken(_noteToken);\n    }\n\n    //places up to 10 valid notes in the composition\n    function placeNotes(uint256[] _pitches, uint256[] _places, uint256 _numNotes) beforeEndTime() placeValidNotes(_pitches, _places, _numNotes) external {\n        require(notes.transferFrom(msg.sender, this, _numNotes));\n\n        for (uint256 i = 0; i < _pitches.length; i++) {\n            noteId memory note;\n            note.pitch = _pitches[i];\n            note.place = _places[i];\n\n            ownedNotes[msg.sender].push(note);\n\n            composition[_pitches[i]][_places[i]] = true;\n            composers[_pitches[i]][_places[i]] = msg.sender;\n        }\n    }\n\n    //removes up to 10 owned notes from composition\n    function removeNotes(uint256[] _pitches, uint256[] _places, uint256 _numNotes) beforeEndTime() removeValidNotes(_pitches, _places, _numNotes) external {\n        for (uint256 i = 0; i < _pitches.length; i++) {\n            uint256 pitch = _pitches[i];\n            uint256 place = _places[i];\n            composition[pitch][place] = false;\n            composers[pitch][place] = 0x0;\n\n            removeOwnedNote(msg.sender, pitch, place);\n        }\n\n        require(notes.transfer(msg.sender, _numNotes));\n    }\n\n    //internal function to remove notes from ownedNotes array\n    function removeOwnedNote(address sender, uint256 _pitch, uint256 _place) internal {\n        uint256 length = ownedNotes[sender].length;\n\n        for (uint256 i = 0; i < length; i++) {\n            if (ownedNotes[sender][i].pitch == _pitch && ownedNotes[sender][i].place == _place) {\n                ownedNotes[sender][i] = ownedNotes[sender][length-1];\n                delete ownedNotes[sender][length-1];\n                ownedNotes[sender].length = (length - 1);\n                break;\n            }\n        }\n    }\n\n    //gets a line in the composition for viewing purposes and to prevent having to get the whole composition at once\n    function getNoteLine(uint _pitch) external view returns (bool[100]) {\n        bool[100] memory line = composition[_pitch];\n        return line;\n    }\n\n    //returns whether or note a note exists at a pitch and place\n    function getNote(uint _pitch, uint _place) external view returns (bool) {\n        bool _note = composition[_pitch][_place];\n        return _note; \n    }\n\n    //returns notes placed by sender\n    function getPlacedNotes() external view returns (uint[], uint[]) {\n        uint length = ownedNotes[msg.sender].length;\n\n        uint[] memory pitches = new uint[](length);\n        uint[] memory places = new uint[](length);\n        \n        for (uint i = 0; i < ownedNotes[msg.sender].length; i++) {\n            pitches[i] = ownedNotes[msg.sender][i].pitch;\n            places[i] = ownedNotes[msg.sender][i].place;\n        }\n\n        return (pitches,places);\n    }\n}",
  "sourcePath": "/Users/nathanieloden/Documents/ethereum/CryptoCollab/contracts/CompositionPart.sol",
  "compiler": {
    "name": "solc",
    "version": "0.4.19+commit.c4cbbb05.Emscripten.clang"
  },
  "schemaVersion": "1.0.1",
  "updatedAt": "2018-02-13T00:25:08.151Z"
}