{
  "contractName": "CompositionPart",
  "abi": [
    {
      "inputs": [
        {
          "name": "_endTime",
          "type": "uint256"
        },
        {
          "name": "_noteToken",
          "type": "address"
        }
      ],
      "payable": false,
      "stateMutability": "nonpayable",
      "type": "constructor"
    },
    {
      "constant": false,
      "inputs": [
        {
          "name": "_pitches",
          "type": "uint256[]"
        },
        {
          "name": "_places",
          "type": "uint256[]"
        },
        {
          "name": "_numNotes",
          "type": "uint256"
        }
      ],
      "name": "placeNotes",
      "outputs": [],
      "payable": false,
      "stateMutability": "nonpayable",
      "type": "function"
    },
    {
      "constant": false,
      "inputs": [
        {
          "name": "_pitches",
          "type": "uint256[]"
        },
        {
          "name": "_places",
          "type": "uint256[]"
        },
        {
          "name": "_numNotes",
          "type": "uint256"
        }
      ],
      "name": "removeNotes",
      "outputs": [],
      "payable": false,
      "stateMutability": "nonpayable",
      "type": "function"
    },
    {
      "constant": true,
      "inputs": [
        {
          "name": "_pitch",
          "type": "uint256"
        }
      ],
      "name": "getNoteLine",
      "outputs": [
        {
          "name": "",
          "type": "bool[100]"
        }
      ],
      "payable": false,
      "stateMutability": "view",
      "type": "function"
    },
    {
      "constant": true,
      "inputs": [
        {
          "name": "_pitch",
          "type": "uint256"
        },
        {
          "name": "_place",
          "type": "uint256"
        }
      ],
      "name": "getNote",
      "outputs": [
        {
          "name": "",
          "type": "bool"
        }
      ],
      "payable": false,
      "stateMutability": "view",
      "type": "function"
    },
    {
      "constant": true,
      "inputs": [
        {
          "name": "_pitch",
          "type": "uint256"
        },
        {
          "name": "_place",
          "type": "uint256"
        }
      ],
      "name": "getNoteOwner",
      "outputs": [
        {
          "name": "",
          "type": "address"
        }
      ],
      "payable": false,
      "stateMutability": "view",
      "type": "function"
    },
    {
      "constant": true,
      "inputs": [],
      "name": "getPlacedNotes",
      "outputs": [
        {
          "name": "",
          "type": "uint256[]"
        },
        {
          "name": "",
          "type": "uint256[]"
        }
      ],
      "payable": false,
      "stateMutability": "view",
      "type": "function"
    }
  ],
  "bytecode": "0x6060604052341561000f57600080fd5b60405160408061129e833981016040528080519060200190919080519060200190919050508161340181905550806000806101000a81548173ffffffffffffffffffffffffffffffffffffffff021916908373ffffffffffffffffffffffffffffffffffffffff16021790555050506112118061008d6000396000f300606060405260043610610078576000357c0100000000000000000000000000000000000000000000000000000000900463ffffffff16806302ccee021461007d57806338ededc9146100dc578063874a7036146101485780638bc19c041461019357806399d0f06c14610245578063db491e8014610290575b600080fd5b341561008857600080fd5b61009e60048080359060200190919050506102d4565b6040518082606460200280838360005b838110156100c95780820151818401526020810190506100ae565b5050505090500191505060405180910390f35b34156100e757600080fd5b6101066004808035906020019091908035906020019091905050610363565b604051808273ffffffffffffffffffffffffffffffffffffffff1673ffffffffffffffffffffffffffffffffffffffff16815260200191505060405180910390f35b341561015357600080fd5b6101916004808035906020019082018035906020019190919290803590602001908201803590602001919091929080359060200190919050506103b0565b005b341561019e57600080fd5b6101a661082a565b604051808060200180602001838103835285818151815260200191508051906020019060200280838360005b838110156101ed5780820151818401526020810190506101d2565b50505050905001838103825284818151815260200191508051906020019060200280838360005b8381101561022f578082015181840152602081019050610214565b5050505090500194505050505060405180910390f35b341561025057600080fd5b61028e600480803590602001908201803590602001919091929080359060200190820180359060200191909192908035906020019091905050610a37565b005b341561029b57600080fd5b6102ba6004808035906020019091908035906020019091905050610de5565b604051808215151515815260200191505060405180910390f35b6102dc6110f9565b6102e46110f9565b6001836080811015156102f357fe5b60040201606480602002604051908101604052809291908260648015610353576020028201916000905b82829054906101000a900460ff1615158152602001906001019060208260000104928301926001038202915080841161031d5790505b5050505050905080915050919050565b60006102018360808110151561037557fe5b606402018260648110151561038657fe5b0160009054906101000a900473ffffffffffffffffffffffffffffffffffffffff16905092915050565b60006103ba611124565b61340154421015156103cb57600080fd5b8686808060200260200160405190810160405280939291908181526020018383602002808284378201915050505050508585808060200260200160405190810160405280939291908181526020018383602002808284378201915050505050508460008251845114151561043e57600080fd5b600a84511115151561044f57600080fd5b81845114151561045e57600080fd5b600090505b835181101561052e57607f848281518110151561047c57fe5b9060200190602002015111806104a957506063838281518110151561049d57fe5b90602001906020020151115b156104b357600080fd5b600184828151811015156104c357fe5b906020019060200201516080811015156104d957fe5b6004020183828151811015156104eb57fe5b9060200190602002015160648110151561050157fe5b602091828204019190069054906101000a900460ff161561052157600080fd5b8080600101915050610463565b6000809054906101000a900473ffffffffffffffffffffffffffffffffffffffff1673ffffffffffffffffffffffffffffffffffffffff166323b872dd33308a6000604051602001526040518463ffffffff167c0100000000000000000000000000000000000000000000000000000000028152600401808473ffffffffffffffffffffffffffffffffffffffff1673ffffffffffffffffffffffffffffffffffffffff1681526020018373ffffffffffffffffffffffffffffffffffffffff1673ffffffffffffffffffffffffffffffffffffffff1681526020018281526020019350505050602060405180830381600087803b151561062e57600080fd5b6102c65a03f1151561063f57600080fd5b50505060405180519050151561065457600080fd5b600095505b8a8a905086101561081d578a8a87818110151561067257fe5b90506020020135856000018181525050888887818110151561069057fe5b9050602002013585602001818152505061340260003373ffffffffffffffffffffffffffffffffffffffff1673ffffffffffffffffffffffffffffffffffffffff16815260200190815260200160002080548060010182816106f2919061113e565b9160005260206000209060020201600087909190915060008201518160000155602082015181600101555050506001808c8c89818110151561073057fe5b9050602002013560808110151561074357fe5b600402018a8a89818110151561075557fe5b9050602002013560648110151561076857fe5b602091828204019190066101000a81548160ff021916908315150217905550336102018c8c89818110151561079957fe5b905060200201356080811015156107ac57fe5b606402018a8a8981811015156107be57fe5b905060200201356064811015156107d157fe5b0160006101000a81548173ffffffffffffffffffffffffffffffffffffffff021916908373ffffffffffffffffffffffffffffffffffffffff1602179055508580600101965050610659565b5050505050505050505050565b610832611170565b61083a611170565b6000610844611170565b61084c611170565b600061340260003373ffffffffffffffffffffffffffffffffffffffff1673ffffffffffffffffffffffffffffffffffffffff168152602001908152602001600020805490509350836040518059106108a25750595b90808252806020026020018201604052509250836040518059106108c35750595b90808252806020026020018201604052509150600090505b61340260003373ffffffffffffffffffffffffffffffffffffffff1673ffffffffffffffffffffffffffffffffffffffff16815260200190815260200160002080549050811015610a295761340260003373ffffffffffffffffffffffffffffffffffffffff1673ffffffffffffffffffffffffffffffffffffffff1681526020019081526020016000208181548110151561097357fe5b906000526020600020906002020160000154838281518110151561099357fe5b906020019060200201818152505061340260003373ffffffffffffffffffffffffffffffffffffffff1673ffffffffffffffffffffffffffffffffffffffff168152602001908152602001600020818154811015156109ee57fe5b9060005260206000209060020201600101548282815181101515610a0e57fe5b906020019060200201818152505080806001019150506108db565b828295509550505050509091565b60008060006134015442101515610a4d57600080fd5b87878080602002602001604051908101604052809392919081815260200183836020028082843782019150505050505086868080602002602001604051908101604052809392919081815260200183836020028082843782019150505050505085600082518451141515610ac057600080fd5b600a845111151515610ad157600080fd5b818451141515610ae057600080fd5b600090505b8351811015610bec5760808482815181101515610afe57fe5b906020019060200201511180610b2b575060648382815181101515610b1f57fe5b90602001906020020151115b15610b3557600080fd5b3373ffffffffffffffffffffffffffffffffffffffff166102018583815181101515610b5d57fe5b90602001906020020151608081101515610b7357fe5b606402018483815181101515610b8557fe5b90602001906020020151606481101515610b9b57fe5b0160009054906101000a900473ffffffffffffffffffffffffffffffffffffffff1673ffffffffffffffffffffffffffffffffffffffff16141515610bdf57600080fd5b8080600101915050610ae5565b600096505b8b8b9050871015610ce5578b8b888181101515610c0a57fe5b9050602002013595508989888181101515610c2157fe5b9050602002013594506000600187608081101515610c3b57fe5b6004020186606481101515610c4c57fe5b602091828204019190066101000a81548160ff021916908315150217905550600061020187608081101515610c7d57fe5b6064020186606481101515610c8e57fe5b0160006101000a81548173ffffffffffffffffffffffffffffffffffffffff021916908373ffffffffffffffffffffffffffffffffffffffff160217905550610cd8338787610e2a565b8680600101975050610bf1565b6000809054906101000a900473ffffffffffffffffffffffffffffffffffffffff1673ffffffffffffffffffffffffffffffffffffffff1663a9059cbb338a6000604051602001526040518363ffffffff167c0100000000000000000000000000000000000000000000000000000000028152600401808373ffffffffffffffffffffffffffffffffffffffff1673ffffffffffffffffffffffffffffffffffffffff16815260200182815260200192505050602060405180830381600087803b1515610db157600080fd5b6102c65a03f11515610dc257600080fd5b505050604051805190501515610dd757600080fd5b505050505050505050505050565b600080600184608081101515610df757fe5b6004020183606481101515610e0857fe5b602091828204019190069054906101000a900460ff1690508091505092915050565b60008061340260008673ffffffffffffffffffffffffffffffffffffffff1673ffffffffffffffffffffffffffffffffffffffff168152602001908152602001600020805490509150600090505b818110156110f2578361340260008773ffffffffffffffffffffffffffffffffffffffff1673ffffffffffffffffffffffffffffffffffffffff16815260200190815260200160002082815481101515610ece57fe5b906000526020600020906002020160000154148015610f4a57508261340260008773ffffffffffffffffffffffffffffffffffffffff1673ffffffffffffffffffffffffffffffffffffffff16815260200190815260200160002082815481101515610f3657fe5b906000526020600020906002020160010154145b156110e55761340260008673ffffffffffffffffffffffffffffffffffffffff1673ffffffffffffffffffffffffffffffffffffffff16815260200190815260200160002060018303815481101515610f9f57fe5b906000526020600020906002020161340260008773ffffffffffffffffffffffffffffffffffffffff1673ffffffffffffffffffffffffffffffffffffffff16815260200190815260200160002082815481101515610ffa57fe5b9060005260206000209060020201600082015481600001556001820154816001015590505061340260008673ffffffffffffffffffffffffffffffffffffffff1673ffffffffffffffffffffffffffffffffffffffff1681526020019081526020016000206001830381548110151561106f57fe5b9060005260206000209060020201600080820160009055600182016000905550506001820361340260008773ffffffffffffffffffffffffffffffffffffffff1673ffffffffffffffffffffffffffffffffffffffff168152602001908152602001600020816110df9190611184565b506110f2565b8080600101915050610e78565b5050505050565b610c80604051908101604052806064905b6000151581526020019060019003908161110a5790505090565b604080519081016040528060008152602001600081525090565b81548183558181151161116b5760020281600202836000526020600020918201910161116a91906111b6565b5b505050565b602060405190810160405280600081525090565b8154818355818115116111b1576002028160020283600052602060002091820191016111b091906111b6565b5b505050565b6111e291905b808211156111de576000808201600090556001820160009055506002016111bc565b5090565b905600a165627a7a72305820a98af71bb029abf9c7e85cc6e2be63974bec8691b9e5e900a56d54c8b96086fb0029",
  "source": "pragma solidity ^0.4.18;\n\nimport './NoteToken.sol';\n\ncontract CompositionPart {\n    //note struct, holds pitch and place\n    struct noteId {\n        uint256 pitch;\n        uint256 place;\n    }\n\n    //token contract\n    NoteToken notes;\n\n    //2d graph of notes and places, represents midi values 0-127 and position,\n    bool[100][128] composition;\n    //2d graph representing who owns a placed note\n    address[100][128] composers;\n    \n    //time when composing freezes\n    uint endTime;\n\n    //keeps track of notes placed by an address\n    mapping (address => noteId[]) ownedNotes;\n    //keeps track of an addresses remaing notes\n    mapping (address => uint) noteBalances;\n\n    modifier beforeEndTime() {\n        require(now < endTime);\n        _;\n    }\n\n    modifier afterEndTime() {\n        require(now > endTime);\n        _;\n    }\n\n    modifier placeValidNotes(uint[] _pitches, uint[] _places, uint256 _numNotes) {\n        require(_pitches.length == _places.length);\n        require(_pitches.length <= 10);\n        require(_pitches.length == _numNotes);\n\n        for (uint256 i = 0; i < _pitches.length; i++) {\n            if (_pitches[i] > 127 || _places[i] > 99) {\n                revert();\n            } else if (composition[_pitches[i]][_places[i]]) {\n                revert();\n            } \n        }\n        _;\n    }\n\n    modifier removeValidNotes(uint[] _pitches, uint[] _places, uint256 _numNotes) {\n        require(_pitches.length == _places.length);\n        require(_pitches.length <= 10);\n        require(_pitches.length == _numNotes);\n\n        for (uint256 i = 0; i < _pitches.length; i++) {\n            if (_pitches[i] > 128 || _places[i] > 100) {\n                revert();\n            } else if (composers[_pitches[i]][_places[i]] != msg.sender) {\n                revert();\n            }\n        }\n        _;\n    }\n    \n    //constructor\n    function CompositionPart(uint _endTime, address _noteToken) public {\n        endTime = _endTime;\n        notes = NoteToken(_noteToken);\n    }\n\n    //places up to 10 valid notes in the composition\n    function placeNotes(uint256[] _pitches, uint256[] _places, uint256 _numNotes) beforeEndTime() placeValidNotes(_pitches, _places, _numNotes) external {\n        require(notes.transferFrom(msg.sender, this, _numNotes));\n\n        for (uint256 i = 0; i < _pitches.length; i++) {\n            noteId memory note;\n            note.pitch = _pitches[i];\n            note.place = _places[i];\n\n            ownedNotes[msg.sender].push(note);\n\n            composition[_pitches[i]][_places[i]] = true;\n            composers[_pitches[i]][_places[i]] = msg.sender;\n        }\n    }\n\n    //removes up to 10 owned notes from composition\n    function removeNotes(uint256[] _pitches, uint256[] _places, uint256 _numNotes) beforeEndTime() removeValidNotes(_pitches, _places, _numNotes) external {\n        for (uint256 i = 0; i < _pitches.length; i++) {\n            uint256 pitch = _pitches[i];\n            uint256 place = _places[i];\n            composition[pitch][place] = false;\n            composers[pitch][place] = 0x0;\n\n            removeOwnedNote(msg.sender, pitch, place);\n        }\n\n        require(notes.transfer(msg.sender, _numNotes));\n    }\n\n    //internal function to remove notes from ownedNotes array\n    function removeOwnedNote(address sender, uint256 _pitch, uint256 _place) internal {\n        uint256 length = ownedNotes[sender].length;\n\n        for (uint256 i = 0; i < length; i++) {\n            if (ownedNotes[sender][i].pitch == _pitch && ownedNotes[sender][i].place == _place) {\n                ownedNotes[sender][i] = ownedNotes[sender][length-1];\n                delete ownedNotes[sender][length-1];\n                ownedNotes[sender].length = (length - 1);\n                break;\n            }\n        }\n    }\n\n    //gets a line in the composition for viewing purposes and to prevent having to get the whole composition at once\n    function getNoteLine(uint _pitch) external view returns (bool[100]) {\n        bool[100] memory line = composition[_pitch];\n        return line;\n    }\n\n    //returns whether or note a note exists at a pitch and place\n    function getNote(uint _pitch, uint _place) external view returns (bool) {\n        bool _note = composition[_pitch][_place];\n        return _note; \n    }\n\n    //returns Note owner\n    function getNoteOwner(uint _pitch, uint _place) external view returns (address) {\n        return composers[_pitch][_place];\n    }\n\n    //returns notes placed by sender\n    function getPlacedNotes() external view returns (uint[], uint[]) {\n        uint length = ownedNotes[msg.sender].length;\n\n        uint[] memory pitches = new uint[](length);\n        uint[] memory places = new uint[](length);\n        \n        for (uint i = 0; i < ownedNotes[msg.sender].length; i++) {\n            pitches[i] = ownedNotes[msg.sender][i].pitch;\n            places[i] = ownedNotes[msg.sender][i].place;\n        }\n\n        return (pitches,places);\n    }\n}",
  "sourcePath": "/Users/nathanieloden/Documents/ethereum/CryptoCollab/contracts/CompositionPart.sol",
  "compiler": {
    "name": "solc",
    "version": "0.4.19+commit.c4cbbb05.Emscripten.clang"
  },
  "schemaVersion": "1.0.1",
  "updatedAt": "2018-02-13T01:48:03.850Z"
}