{
  "contractName": "CompositionPart",
  "abi": [
    {
      "inputs": [
        {
          "name": "_endTime",
          "type": "uint256"
        },
        {
          "name": "_noteToken",
          "type": "address"
        }
      ],
      "payable": false,
      "stateMutability": "nonpayable",
      "type": "constructor"
    },
    {
      "constant": false,
      "inputs": [
        {
          "name": "_pitches",
          "type": "uint256[]"
        },
        {
          "name": "_places",
          "type": "uint256[]"
        },
        {
          "name": "_numNotes",
          "type": "uint256"
        }
      ],
      "name": "placeNotes",
      "outputs": [],
      "payable": false,
      "stateMutability": "nonpayable",
      "type": "function"
    },
    {
      "constant": false,
      "inputs": [
        {
          "name": "_pitches",
          "type": "uint256[]"
        },
        {
          "name": "_places",
          "type": "uint256[]"
        },
        {
          "name": "_numNotes",
          "type": "uint256"
        }
      ],
      "name": "removeNotes",
      "outputs": [],
      "payable": false,
      "stateMutability": "nonpayable",
      "type": "function"
    },
    {
      "constant": true,
      "inputs": [
        {
          "name": "_pitch",
          "type": "uint256"
        }
      ],
      "name": "getNoteLine",
      "outputs": [
        {
          "name": "",
          "type": "bool[500]"
        }
      ],
      "payable": false,
      "stateMutability": "view",
      "type": "function"
    },
    {
      "constant": true,
      "inputs": [
        {
          "name": "_pitch",
          "type": "uint256"
        },
        {
          "name": "_place",
          "type": "uint256"
        }
      ],
      "name": "getNote",
      "outputs": [
        {
          "name": "",
          "type": "bool"
        }
      ],
      "payable": false,
      "stateMutability": "view",
      "type": "function"
    },
    {
      "constant": true,
      "inputs": [
        {
          "name": "_pitch",
          "type": "uint256"
        },
        {
          "name": "_place",
          "type": "uint256"
        }
      ],
      "name": "getNoteOwner",
      "outputs": [
        {
          "name": "",
          "type": "address"
        }
      ],
      "payable": false,
      "stateMutability": "view",
      "type": "function"
    },
    {
      "constant": true,
      "inputs": [],
      "name": "getPlacedNotes",
      "outputs": [
        {
          "name": "",
          "type": "uint256[]"
        },
        {
          "name": "",
          "type": "uint256[]"
        }
      ],
      "payable": false,
      "stateMutability": "view",
      "type": "function"
    }
  ],
  "bytecode": "0x6060604052341561000f57600080fd5b60405160408061128b83398101604052808051906020019091908051906020019091905050816201020181905550806000806101000a81548173ffffffffffffffffffffffffffffffffffffffff021916908373ffffffffffffffffffffffffffffffffffffffff16021790555050506111fd8061008e6000396000f300606060405260043610610078576000357c0100000000000000000000000000000000000000000000000000000000900463ffffffff16806302ccee021461007d57806338ededc9146100dd578063874a7036146101495780638bc19c041461019457806399d0f06c14610246578063db491e8014610291575b600080fd5b341561008857600080fd5b61009e60048080359060200190919050506102d5565b60405180826101f460200280838360005b838110156100ca5780820151818401526020810190506100af565b5050505090500191505060405180910390f35b34156100e857600080fd5b6101076004808035906020019091908035906020019091905050610366565b604051808273ffffffffffffffffffffffffffffffffffffffff1673ffffffffffffffffffffffffffffffffffffffff16815260200191505060405180910390f35b341561015457600080fd5b6101926004808035906020019082018035906020019190919290803590602001908201803590602001919091929080359060200190919050506103b5565b005b341561019f57600080fd5b6101a7610802565b604051808060200180602001838103835285818151815260200191508051906020019060200280838360005b838110156101ee5780820151818401526020810190506101d3565b50505050905001838103825284818151815260200191508051906020019060200280838360005b83811015610230578082015181840152602081019050610215565b5050505090500194505050505060405180910390f35b341561025157600080fd5b61028f600480803590602001908201803590602001919091929080359060200190820180359060200191909192908035906020019091905050610a13565b005b341561029c57600080fd5b6102bb6004808035906020019091908035906020019091905050610dc8565b604051808215151515815260200191505060405180910390f35b6102dd6110e4565b6102e56110e4565b6001836080811015156102f457fe5b601002016101f48060200260405190810160405280929190826101f48015610356576020028201916000905b82829054906101000a900460ff161515815260200190600101906020826000010492830192600103820291508084116103205790505b5050505050905080915050919050565b60006108018360808110151561037857fe5b6101f40201826101f48110151561038b57fe5b0160009054906101000a900473ffffffffffffffffffffffffffffffffffffffff16905092915050565b60006103bf611110565b6201020154421015156103d157600080fd5b8686808060200260200160405190810160405280939291908181526020018383602002808284378201915050505050508585808060200260200160405190810160405280939291908181526020018383602002808284378201915050505050508460008251845114151561044457600080fd5b600a84511115151561045557600080fd5b81845114151561046457600080fd5b600090505b835181101561053657607f848281518110151561048257fe5b9060200190602002015111806104b057506101f383828151811015156104a457fe5b90602001906020020151115b156104ba57600080fd5b600184828151811015156104ca57fe5b906020019060200201516080811015156104e057fe5b6010020183828151811015156104f257fe5b906020019060200201516101f48110151561050957fe5b602091828204019190069054906101000a900460ff161561052957600080fd5b8080600101915050610469565b6000809054906101000a900473ffffffffffffffffffffffffffffffffffffffff1673ffffffffffffffffffffffffffffffffffffffff1663861c9c7933896000604051602001526040518363ffffffff167c0100000000000000000000000000000000000000000000000000000000028152600401808373ffffffffffffffffffffffffffffffffffffffff1673ffffffffffffffffffffffffffffffffffffffff16815260200182815260200192505050602060405180830381600087803b151561060257600080fd5b6102c65a03f1151561061357600080fd5b50505060405180519050151561062857600080fd5b600095505b8a8a90508610156107f5578a8a87818110151561064657fe5b90506020020135856000018181525050888887818110151561066457fe5b905060200201358560200181815250506201020260003373ffffffffffffffffffffffffffffffffffffffff1673ffffffffffffffffffffffffffffffffffffffff16815260200190815260200160002080548060010182816106c7919061112a565b9160005260206000209060020201600087909190915060008201518160000155602082015181600101555050506001808c8c89818110151561070557fe5b9050602002013560808110151561071857fe5b601002018a8a89818110151561072a57fe5b905060200201356101f48110151561073e57fe5b602091828204019190066101000a81548160ff021916908315150217905550336108018c8c89818110151561076f57fe5b9050602002013560808110151561078257fe5b6101f402018a8a89818110151561079557fe5b905060200201356101f4811015156107a957fe5b0160006101000a81548173ffffffffffffffffffffffffffffffffffffffff021916908373ffffffffffffffffffffffffffffffffffffffff160217905550858060010196505061062d565b5050505050505050505050565b61080a61115c565b61081261115c565b600061081c61115c565b61082461115c565b60006201020260003373ffffffffffffffffffffffffffffffffffffffff1673ffffffffffffffffffffffffffffffffffffffff1681526020019081526020016000208054905093508360405180591061087b5750595b908082528060200260200182016040525092508360405180591061089c5750595b90808252806020026020018201604052509150600090505b6201020260003373ffffffffffffffffffffffffffffffffffffffff1673ffffffffffffffffffffffffffffffffffffffff16815260200190815260200160002080549050811015610a05576201020260003373ffffffffffffffffffffffffffffffffffffffff1673ffffffffffffffffffffffffffffffffffffffff1681526020019081526020016000208181548110151561094e57fe5b906000526020600020906002020160000154838281518110151561096e57fe5b90602001906020020181815250506201020260003373ffffffffffffffffffffffffffffffffffffffff1673ffffffffffffffffffffffffffffffffffffffff168152602001908152602001600020818154811015156109ca57fe5b90600052602060002090600202016001015482828151811015156109ea57fe5b906020019060200201818152505080806001019150506108b4565b828295509550505050509091565b6000806000620102015442101515610a2a57600080fd5b87878080602002602001604051908101604052809392919081815260200183836020028082843782019150505050505086868080602002602001604051908101604052809392919081815260200183836020028082843782019150505050505085600082518451141515610a9d57600080fd5b600a845111151515610aae57600080fd5b818451141515610abd57600080fd5b600090505b8351811015610bcc57607f8482815181101515610adb57fe5b906020019060200201511180610b0957506101f38382815181101515610afd57fe5b90602001906020020151115b15610b1357600080fd5b3373ffffffffffffffffffffffffffffffffffffffff166108018583815181101515610b3b57fe5b90602001906020020151608081101515610b5157fe5b6101f402018483815181101515610b6457fe5b906020019060200201516101f481101515610b7b57fe5b0160009054906101000a900473ffffffffffffffffffffffffffffffffffffffff1673ffffffffffffffffffffffffffffffffffffffff16141515610bbf57600080fd5b8080600101915050610ac2565b600096505b8b8b9050871015610cc8578b8b888181101515610bea57fe5b9050602002013595508989888181101515610c0157fe5b9050602002013594506000600187608081101515610c1b57fe5b60100201866101f481101515610c2d57fe5b602091828204019190066101000a81548160ff021916908315150217905550600061080187608081101515610c5e57fe5b6101f40201866101f481101515610c7157fe5b0160006101000a81548173ffffffffffffffffffffffffffffffffffffffff021916908373ffffffffffffffffffffffffffffffffffffffff160217905550610cbb338787610e0e565b8680600101975050610bd1565b6000809054906101000a900473ffffffffffffffffffffffffffffffffffffffff1673ffffffffffffffffffffffffffffffffffffffff1663a9059cbb338a6000604051602001526040518363ffffffff167c0100000000000000000000000000000000000000000000000000000000028152600401808373ffffffffffffffffffffffffffffffffffffffff1673ffffffffffffffffffffffffffffffffffffffff16815260200182815260200192505050602060405180830381600087803b1515610d9457600080fd5b6102c65a03f11515610da557600080fd5b505050604051805190501515610dba57600080fd5b505050505050505050505050565b600080600184608081101515610dda57fe5b60100201836101f481101515610dec57fe5b602091828204019190069054906101000a900460ff1690508091505092915050565b6000806201020260008673ffffffffffffffffffffffffffffffffffffffff1673ffffffffffffffffffffffffffffffffffffffff168152602001908152602001600020805490509150600090505b818110156110dd57836201020260008773ffffffffffffffffffffffffffffffffffffffff1673ffffffffffffffffffffffffffffffffffffffff16815260200190815260200160002082815481101515610eb457fe5b906000526020600020906002020160000154148015610f315750826201020260008773ffffffffffffffffffffffffffffffffffffffff1673ffffffffffffffffffffffffffffffffffffffff16815260200190815260200160002082815481101515610f1d57fe5b906000526020600020906002020160010154145b156110d0576201020260008673ffffffffffffffffffffffffffffffffffffffff1673ffffffffffffffffffffffffffffffffffffffff16815260200190815260200160002060018303815481101515610f8757fe5b90600052602060002090600202016201020260008773ffffffffffffffffffffffffffffffffffffffff1673ffffffffffffffffffffffffffffffffffffffff16815260200190815260200160002082815481101515610fe357fe5b906000526020600020906002020160008201548160000155600182015481600101559050506201020260008673ffffffffffffffffffffffffffffffffffffffff1673ffffffffffffffffffffffffffffffffffffffff1681526020019081526020016000206001830381548110151561105957fe5b906000526020600020906002020160008082016000905560018201600090555050600182036201020260008773ffffffffffffffffffffffffffffffffffffffff1673ffffffffffffffffffffffffffffffffffffffff168152602001908152602001600020816110ca9190611170565b506110dd565b8080600101915050610e5d565b5050505050565b613e80604051908101604052806101f4905b600015158152602001906001900390816110f65790505090565b604080519081016040528060008152602001600081525090565b8154818355818115116111575760020281600202836000526020600020918201910161115691906111a2565b5b505050565b602060405190810160405280600081525090565b81548183558181151161119d5760020281600202836000526020600020918201910161119c91906111a2565b5b505050565b6111ce91905b808211156111ca576000808201600090556001820160009055506002016111a8565b5090565b905600a165627a7a7230582091dbe9088b068a3a1564e7d13440ced0718968e9178f73b414c6727a1d589c2a0029",
  "source": "pragma solidity ^0.4.18;\n\nimport './NoteToken.sol';\n\ncontract CompositionPart {\n    //note struct, holds pitch and place\n    struct noteId {\n        uint256 pitch;\n        uint256 place;\n    }\n\n    //token contract\n    NoteToken notes;\n\n    //2d graph of notes and places, represents midi values 0-127 and position,\n    bool[500][128] composition;\n    //2d graph representing who owns a placed note\n    address[500][128] composers;\n    \n    //time when composing freezes\n    uint endTime;\n\n    //keeps track of notes placed by an address\n    mapping (address => noteId[]) ownedNotes;\n    //keeps track of an addresses remaing notes\n    mapping (address => uint) noteBalances;\n\n    modifier beforeEndTime() {\n        require(now < endTime);\n        _;\n    }\n\n    modifier afterEndTime() {\n        require(now > endTime);\n        _;\n    }\n\n    modifier placeValidNotes(uint[] _pitches, uint[] _places, uint256 _numNotes) {\n        require(_pitches.length == _places.length);\n        require(_pitches.length <= 10);\n        require(_pitches.length == _numNotes);\n\n        for (uint256 i = 0; i < _pitches.length; i++) {\n            if (_pitches[i] > 127 || _places[i] > 499) {\n                revert();\n            } else if (composition[_pitches[i]][_places[i]]) {\n                revert();\n            } \n        }\n        _;\n    }\n\n    modifier removeValidNotes(uint[] _pitches, uint[] _places, uint256 _numNotes) {\n        require(_pitches.length == _places.length);\n        require(_pitches.length <= 10);\n        require(_pitches.length == _numNotes);\n\n        for (uint256 i = 0; i < _pitches.length; i++) {\n            if (_pitches[i] > 127 || _places[i] > 499) {\n                revert();\n            } else if (composers[_pitches[i]][_places[i]] != msg.sender) {\n                revert();\n            }\n        }\n        _;\n    }\n\n    //constructor\n    function CompositionPart(uint _endTime, address _noteToken) public {\n        endTime = _endTime;\n        notes = NoteToken(_noteToken);\n    }\n\n    //places up to 10 valid notes in the composition\n    function placeNotes(uint256[] _pitches, uint256[] _places, uint256 _numNotes) beforeEndTime() placeValidNotes(_pitches, _places, _numNotes) external {\n        require(notes.transferToComposition(msg.sender, _numNotes));\n\n        for (uint256 i = 0; i < _pitches.length; i++) {\n            noteId memory note;\n            note.pitch = _pitches[i];\n            note.place = _places[i];\n\n            ownedNotes[msg.sender].push(note);\n\n            composition[_pitches[i]][_places[i]] = true;\n            composers[_pitches[i]][_places[i]] = msg.sender;\n        }\n    }\n\n    //removes up to 10 owned notes from composition\n    function removeNotes(uint256[] _pitches, uint256[] _places, uint256 _numNotes) beforeEndTime() removeValidNotes(_pitches, _places, _numNotes) external {\n        for (uint256 i = 0; i < _pitches.length; i++) {\n            uint256 pitch = _pitches[i];\n            uint256 place = _places[i];\n            composition[pitch][place] = false;\n            composers[pitch][place] = 0x0;\n\n            removeOwnedNote(msg.sender, pitch, place);\n        }\n\n        require(notes.transfer(msg.sender, _numNotes));\n    }\n\n    //internal function to remove notes from ownedNotes array\n    function removeOwnedNote(address sender, uint256 _pitch, uint256 _place) internal {\n        uint256 length = ownedNotes[sender].length;\n\n        for (uint256 i = 0; i < length; i++) {\n            if (ownedNotes[sender][i].pitch == _pitch && ownedNotes[sender][i].place == _place) {\n                ownedNotes[sender][i] = ownedNotes[sender][length-1];\n                delete ownedNotes[sender][length-1];\n                ownedNotes[sender].length = (length - 1);\n                break;\n            }\n        }\n    }\n\n    //gets a line in the composition for viewing purposes and to prevent having to get the whole composition at once\n    function getNoteLine(uint _pitch) external view returns (bool[500]) {\n        bool[500] memory line = composition[_pitch];\n        return line;\n    }\n\n    //returns whether or note a note exists at a pitch and place\n    function getNote(uint _pitch, uint _place) external view returns (bool) {\n        bool _note = composition[_pitch][_place];\n        return _note; \n    }\n\n    //returns note owner\n    function getNoteOwner(uint _pitch, uint _place) external view returns (address) {\n        return composers[_pitch][_place];\n    }\n\n    //returns notes placed by sender\n    function getPlacedNotes() external view returns (uint[], uint[]) {\n        uint length = ownedNotes[msg.sender].length;\n\n        uint[] memory pitches = new uint[](length);\n        uint[] memory places = new uint[](length);\n        \n        for (uint i = 0; i < ownedNotes[msg.sender].length; i++) {\n            pitches[i] = ownedNotes[msg.sender][i].pitch;\n            places[i] = ownedNotes[msg.sender][i].place;\n        }\n\n        return (pitches,places);\n    }\n}",
  "sourcePath": "/Users/nathanieloden/Documents/progrimz/ethereum/CryptoCollab/contracts/CompositionPart.sol",
  "compiler": {
    "name": "solc",
    "version": "0.4.19+commit.c4cbbb05.Emscripten.clang"
  },
  "schemaVersion": "1.0.1",
  "updatedAt": "2018-04-03T23:52:48.058Z"
}