{
  "contractName": "Opus",
  "abi": [
    {
      "constant": true,
      "inputs": [],
      "name": "getComposition",
      "outputs": [
        {
          "name": "_pitches",
          "type": "uint256[4][1000]"
        },
        {
          "name": "_durations",
          "type": "uint256[1000]"
        },
        {
          "name": "_composers",
          "type": "address[1000]"
        },
        {
          "name": "_forSales",
          "type": "bool[1000]"
        },
        {
          "name": "_prices",
          "type": "uint256[1000]"
        }
      ],
      "payable": false,
      "stateMutability": "view",
      "type": "function"
    },
    {
      "constant": true,
      "inputs": [],
      "name": "getOwnedNotes",
      "outputs": [
        {
          "name": "",
          "type": "uint256[]"
        }
      ],
      "payable": false,
      "stateMutability": "view",
      "type": "function"
    },
    {
      "constant": false,
      "inputs": [
        {
          "name": "_id",
          "type": "uint256"
        },
        {
          "name": "_price",
          "type": "uint256"
        }
      ],
      "name": "setNotePrice",
      "outputs": [],
      "payable": false,
      "stateMutability": "nonpayable",
      "type": "function"
    },
    {
      "constant": false,
      "inputs": [
        {
          "name": "_id",
          "type": "uint256"
        },
        {
          "name": "_price",
          "type": "uint256"
        }
      ],
      "name": "purchaseNote",
      "outputs": [],
      "payable": true,
      "stateMutability": "payable",
      "type": "function"
    },
    {
      "constant": true,
      "inputs": [
        {
          "name": "_id",
          "type": "uint256"
        },
        {
          "name": "_price",
          "type": "uint256"
        }
      ],
      "name": "getNoteInformation",
      "outputs": [
        {
          "name": "_pitches",
          "type": "uint256[4]"
        },
        {
          "name": "_duration",
          "type": "uint256"
        },
        {
          "name": "_composer",
          "type": "address"
        },
        {
          "name": "_forSale",
          "type": "bool"
        },
        {
          "name": "price",
          "type": "uint256"
        }
      ],
      "payable": false,
      "stateMutability": "view",
      "type": "function"
    },
    {
      "constant": false,
      "inputs": [
        {
          "name": "_id",
          "type": "uint256"
        }
      ],
      "name": "startComposing",
      "outputs": [
        {
          "name": "_pitches",
          "type": "uint256[4]"
        },
        {
          "name": "_duration",
          "type": "uint256"
        },
        {
          "name": "_composer",
          "type": "address"
        },
        {
          "name": "_forSale",
          "type": "bool"
        },
        {
          "name": "price",
          "type": "uint256"
        }
      ],
      "payable": false,
      "stateMutability": "nonpayable",
      "type": "function"
    },
    {
      "constant": false,
      "inputs": [
        {
          "name": "_id",
          "type": "uint256"
        },
        {
          "name": "_duration",
          "type": "uint256"
        }
      ],
      "name": "toggleForSale",
      "outputs": [],
      "payable": false,
      "stateMutability": "nonpayable",
      "type": "function"
    },
    {
      "constant": false,
      "inputs": [
        {
          "name": "_id",
          "type": "uint256"
        },
        {
          "name": "_duration",
          "type": "uint256"
        }
      ],
      "name": "setNoteDuration",
      "outputs": [],
      "payable": false,
      "stateMutability": "nonpayable",
      "type": "function"
    },
    {
      "constant": false,
      "inputs": [
        {
          "name": "_id",
          "type": "uint256"
        },
        {
          "name": "_pitches",
          "type": "uint256[4]"
        }
      ],
      "name": "setNotePitches",
      "outputs": [],
      "payable": false,
      "stateMutability": "nonpayable",
      "type": "function"
    },
    {
      "inputs": [
        {
          "name": "_durationLockTime",
          "type": "uint256"
        },
        {
          "name": "_pitchLockTime",
          "type": "uint256"
        }
      ],
      "payable": false,
      "stateMutability": "nonpayable",
      "type": "constructor"
    }
  ],
  "bytecode": "0x6060604052341561000f57600080fd5b60405160408061108883398101604052808051906020019091908051906020019091905050428211801561004257508181115b151561004d57600080fd5b336000806101000a81548173ffffffffffffffffffffffffffffffffffffffff021916908373ffffffffffffffffffffffffffffffffffffffff16021790555081611b5a8190555080611b5b819055506000611b5c60006101000a81548160ff0219169083151502179055505050610fbe806100ca6000396000f300606060405260043610610099576000357c0100000000000000000000000000000000000000000000000000000000900463ffffffff16806308d721021461009e5780632d731b69146101d35780634585c26c1461023d578063616855eb146102695780637bdb36aa1461028a5780638355a46914610335578063a32018b91461034a578063db1786d51461036d578063ea07fd2714610399575b600080fd5b34156100a957600080fd5b6100b16103c3565b60405180866103e86000925b818410156101035782846020020151600460200280838360005b838110156100f25780820151818401526020810190506100d7565b5050505090500192600101926100bd565b92505050856103e860200280838360005b8381101561012f578082015181840152602081019050610114565b50505050905001846103e860200280838360005b8381101561015e578082015181840152602081019050610143565b50505050905001836103e860200280838360005b8381101561018d578082015181840152602081019050610172565b50505050905001826103e860200280838360005b838110156101bc5780820151818401526020810190506101a1565b505050509050019550505050505060405180910390f35b34156101de57600080fd5b6101e661059b565b6040518080602001828103825283818151815260200191508051906020019060200280838360005b8381101561022957808201518184015260208101905061020e565b505050509050019250505060405180910390f35b341561024857600080fd5b6102676004808035906020019091908035906020019091905050610643565b005b61028860048080359060200190919080359060200190919050506106e7565b005b341561029557600080fd5b6102ab600480803590602001909190505061094d565b6040518086600460200280838360005b838110156102d65780820151818401526020810190506102bb565b505050509050018581526020018473ffffffffffffffffffffffffffffffffffffffff1673ffffffffffffffffffffffffffffffffffffffff168152602001831515151581526020018281526020019550505050505060405180910390f35b341561034057600080fd5b610348610a5a565b005b341561035557600080fd5b61036b6004808035906020019091905050610b98565b005b341561037857600080fd5b6103976004808035906020019091908035906020019091905050610c73565b005b34156103a457600080fd5b6103c1600480803590602001909190806080019091905050610d34565b005b6103cb610e16565b6103d3610e47565b6103db610e71565b6103e3610eb1565b6103eb610e47565b60008090505b6103e8811015610593576001816103e88110151561040b57fe5b60070201600001600480602002604051908101604052809291908260048015610449576020028201915b815481526020019060010190808311610435575b505050505086826103e88110151561045d57fe5b60200201819052506001816103e88110151561047557fe5b600702016004015485826103e88110151561048c57fe5b6020020181815250506001816103e8811015156104a557fe5b6007020160050160009054906101000a900473ffffffffffffffffffffffffffffffffffffffff1684826103e8811015156104dc57fe5b602002019073ffffffffffffffffffffffffffffffffffffffff16908173ffffffffffffffffffffffffffffffffffffffff16815250506001816103e88110151561052357fe5b6007020160050160149054906101000a900460ff1683826103e88110151561054757fe5b6020020190151590811515815250506001816103e88110151561056657fe5b600702016006015482826103e88110151561057d57fe5b60200201818152505080806001019150506103f1565b509091929394565b6105a3610edd565b6105ab610edd565b611b5960003373ffffffffffffffffffffffffffffffffffffffff1673ffffffffffffffffffffffffffffffffffffffff16815260200190815260200160002080548060200260200160405190810160405280929190818152602001828054801561063557602002820191906000526020600020905b815481526020019060010190808311610621575b505050505090508091505090565b813373ffffffffffffffffffffffffffffffffffffffff166001826103e88110151561066b57fe5b6007020160050160009054906101000a900473ffffffffffffffffffffffffffffffffffffffff1673ffffffffffffffffffffffffffffffffffffffff161415156106b557600080fd5b611b5b54421015156106c657600080fd5b816001846103e8811015156106d757fe5b6007020160060181905550505050565b6000826001816103e8811015156106fa57fe5b6007020160050160149054906101000a900460ff16151561071a57600080fd5b611b5b544210151561072b57600080fd5b3373ffffffffffffffffffffffffffffffffffffffff166001856103e88110151561075257fe5b6007020160050160009054906101000a900473ffffffffffffffffffffffffffffffffffffffff1673ffffffffffffffffffffffffffffffffffffffff161415151561079d57600080fd5b6001846103e8811015156107ad57fe5b6007020160060154915081341415156107c557600080fd5b60006001856103e8811015156107d757fe5b60070201600601819055506001846103e8811015156107f257fe5b6007020160050160009054906101000a900473ffffffffffffffffffffffffffffffffffffffff1673ffffffffffffffffffffffffffffffffffffffff166108fc839081150290604051600060405180830381858888f19350505050151561085957600080fd5b3373ffffffffffffffffffffffffffffffffffffffff166001856103e88110151561088057fe5b6007020160050160009054906101000a90505050826001856103e8811015156108a557fe5b600702016006018190555060006001856103e8811015156108c257fe5b6007020160050160146101000a81548160ff021916908315150217905550611b5960003373ffffffffffffffffffffffffffffffffffffffff1673ffffffffffffffffffffffffffffffffffffffff16815260200190815260200160002080548060010182816109329190610ef1565b91600052602060002090016000869091909150555050505050565b610955610f1d565b600080600080610963610f1d565b6001876103e88110151561097357fe5b600702016000016004806020026040519081016040528092919082600480156109b1576020028201915b81548152602001906001019080831161099d575b505050505090508095506001876103e8811015156109cb57fe5b600702016004015494506001876103e8811015156109e557fe5b6007020160050160009054906101000a900473ffffffffffffffffffffffffffffffffffffffff1693506001876103e881101515610a1f57fe5b6007020160050160149054906101000a900460ff1692506001876103e881101515610a4657fe5b600702016006015491505091939590929450565b60003373ffffffffffffffffffffffffffffffffffffffff166000809054906101000a900473ffffffffffffffffffffffffffffffffffffffff1673ffffffffffffffffffffffffffffffffffffffff16148015610ac65750611b5c60009054906101000a900460ff16155b1515610ad157600080fd5b600090505b6103e8811015610b9557336001826103e881101515610af157fe5b6007020160050160006101000a81548173ffffffffffffffffffffffffffffffffffffffff021916908373ffffffffffffffffffffffffffffffffffffffff160217905550600180826103e881101515610b4757fe5b6007020160050160146101000a81548160ff021916908315150217905550662386f26fc100006001826103e881101515610b7d57fe5b60070201600601819055508080600101915050610ad6565b50565b803373ffffffffffffffffffffffffffffffffffffffff166001826103e881101515610bc057fe5b6007020160050160009054906101000a900473ffffffffffffffffffffffffffffffffffffffff1673ffffffffffffffffffffffffffffffffffffffff16141515610c0a57600080fd5b611b5b5442101515610c1b57600080fd5b6001826103e881101515610c2b57fe5b6007020160050160149054906101000a900460ff16156001836103e881101515610c5157fe5b6007020160050160146101000a81548160ff0219169083151502179055505050565b813373ffffffffffffffffffffffffffffffffffffffff166001826103e881101515610c9b57fe5b6007020160050160009054906101000a900473ffffffffffffffffffffffffffffffffffffffff1673ffffffffffffffffffffffffffffffffffffffff16141515610ce557600080fd5b611b5a5442101515610cf657600080fd5b60018210158015610d08575060088211155b1515610d1357600080fd5b816001846103e881101515610d2457fe5b6007020160040181905550505050565b6000823373ffffffffffffffffffffffffffffffffffffffff166001826103e881101515610d5e57fe5b6007020160050160009054906101000a900473ffffffffffffffffffffffffffffffffffffffff1673ffffffffffffffffffffffffffffffffffffffff16141515610da857600080fd5b611b5b5442101515610db957600080fd5b600091505b6004821015610e10578282600481101515610dd557fe5b60200201356001856103e881101515610dea57fe5b6007020160000183600481101515610dfe57fe5b01819055508180600101925050610dbe565b50505050565b6201f400604051908101604052806103e8905b610e31610f45565b815260200190600190039081610e295790505090565b617d00604051908101604052806103e8905b6000815260200190600190039081610e595790505090565b617d00604051908101604052806103e8905b600073ffffffffffffffffffffffffffffffffffffffff16815260200190600190039081610e835790505090565b617d00604051908101604052806103e8905b60001515815260200190600190039081610ec35790505090565b602060405190810160405280600081525090565b815481835581811511610f1857818360005260206000209182019101610f179190610f6d565b5b505050565b6080604051908101604052806004905b6000815260200190600190039081610f2d5790505090565b6080604051908101604052806004905b6000815260200190600190039081610f555790505090565b610f8f91905b80821115610f8b576000816000905550600101610f73565b5090565b905600a165627a7a72305820613c0d0fa9598325c4091964d2af0b3c97ca1dbda99f9de56759797613dd11e90029",
  "source": "pragma solidity ^0.4.17;\n\ncontract Opus {\n\n    //Note structure consisting of four pitches (Midi values from 0-128, 128 will represent a rest ), \n    //duration (value between 1 and 8: 1 = sixteenth, 2 = eight, 3 = dotted eigth, 4 = quarter, \n    //5 = dotted quarter, 6 = half, 7 = dotted half, 8 = whole,\n    // the owner of the note, and price set by owner\n    struct note {\n        uint[4] pitches;\n        uint duration;\n        address composer;\n        bool forSale;\n        uint price;\n    }\n\n    address owner;\n\n    //The composition will consist of a fixed number of notes, number may be subject to change\n    note[1000] composition;\n    mapping (address => uint[]) ownedNoteIds;\n\n    uint durationLockTime;\n    uint pitchLockTime;\n    bool composingStarted;\n\n    modifier noteForSale(uint _id) {\n        require(composition[_id].forSale);\n        _;\n    }\n\n    modifier onlyComposer(uint _id) {\n        require(composition[_id].composer == msg.sender);\n        _;\n    }\n\n    modifier beforeDurationLock() {\n        require(now < durationLockTime);\n        _;\n    }\n\n    modifier beforePitchLock() {\n        require(now < pitchLockTime);\n        _;\n    }\n\n    //Constructor that gives all notes to sender, sets them for sale, and sets their price to an initial value\n    function Opus(uint _durationLockTime, uint _pitchLockTime) {\n\n        require(_durationLockTime > now && _pitchLockTime > _durationLockTime);\n\n        owner = msg.sender;\n\n        durationLockTime = _durationLockTime;\n        pitchLockTime = _pitchLockTime;\n        composingStarted = false;\n    }\n\n    function startComposing() external {\n        require(owner == msg.sender && !composingStarted);\n\n        for (uint i = 0; i < 1000; i++) {\n            composition[i].composer = msg.sender;\n            composition[i].forSale = true;\n            composition[i].price = 0.01 ether;\n        }\n    }\n\n    //lets owner of a note change the pitches, after a certain amount of time pitches will be locked, end of composition \n    function setNotePitches(uint _id, uint[4] _pitches) onlyComposer(_id) beforePitchLock() external {\n\n        for (uint i = 0; i < 4; i++) {\n            composition[_id].pitches[i] = _pitches[i];\n        }\n\n    }\n\n\n    //lets owner of note change the duration, after a certain amount of time durations will be locked\n    function setNoteDuration(uint _id, uint _duration) onlyComposer(_id) beforeDurationLock() external {\n\n        require(_duration >= 1 && _duration <= 8);\n\n        composition[_id].duration = _duration;\n\n    }\n\n    //lets someone purchase a note that is listed for sale, give it a new price. \n    function purchaseNote(uint _id, uint _price) noteForSale(_id) beforePitchLock() external payable {\n        require(composition[_id].composer != msg.sender);\n\n        uint price = composition[_id].price;\n        require(msg.value == price);\n\n        composition[_id].price = 0;\n\n        composition[_id].composer.transfer(price);\n\n        composition[_id].composer == msg.sender;\n        composition[_id].price = _price;\n        composition[_id].forSale = false;\n\n        ownedNoteIds[msg.sender].push(_id);\n    }\n\n    //set owned note for sale or not for sale\n    function toggleForSale(uint _id) onlyComposer(_id) beforePitchLock() external {\n        composition[_id].forSale = !composition[_id].forSale;\n    }\n\n    //set an owned notes price\n    function setNotePrice(uint _id, uint _price) onlyComposer(_id) beforePitchLock() external {\n        composition[_id].price = _price;\n    }\n\n    //get any notes owned by the sender\n    function getOwnedNotes() external view returns (uint[]) {\n\n        uint[] memory _ownedNotes = ownedNoteIds[msg.sender];\n\n        return _ownedNotes;\n    }\n\n    //get specific note information\n    function getNoteInformation(uint _id) external view returns (uint[4] _pitches,\n                                                                uint _duration,\n                                                                address _composer,\n                                                                bool _forSale,\n                                                                uint price\n                                                                ) {\n        uint[4] memory pitches = composition[_id].pitches;\n        _pitches = pitches;\n        _duration = composition[_id].duration;\n        _composer = composition[_id].composer;\n        _forSale = composition[_id].forSale;\n        price = composition[_id].price;\n    }\n\n    //get whole composition\n    function getComposition() external view returns (uint[4][1000] _pitches,\n                                                     uint[1000] _durations,\n                                                     address[1000] _composers,\n                                                     bool[1000] _forSales,\n                                                     uint[1000] _prices\n                                                    ) {\n        for (uint i = 0; i < 1000; i++) {\n            _pitches[i] = composition[i].pitches;\n\n            _durations[i] = composition[i].duration;\n            _composers[i] = composition[i].composer;\n            _forSales[i] = composition[i].forSale;\n            _prices[i] = composition[i].price;\n        }                                                                                               \n    }\n}",
  "sourcePath": "/Users/nathanieloden/Documents/GitHub/EthDevHackathon/compContract/contracts/Opus.sol",
  "compiler": {
    "name": "solc",
    "version": "0.4.18+commit.9cf6e910.Emscripten.clang"
  },
  "schemaVersion": "1.0.1",
  "updatedAt": "2017-12-06T17:46:19.446Z"
}