{
  "contractName": "Opus",
  "abi": [
    {
      "constant": true,
      "inputs": [],
      "name": "getComposition",
      "outputs": [
        {
          "name": "_pitches",
          "type": "uint256[4][1000]"
        },
        {
          "name": "_durations",
          "type": "uint256[1000]"
        },
        {
          "name": "_composers",
          "type": "address[1000]"
        },
        {
          "name": "_forSales",
          "type": "bool[1000]"
        },
        {
          "name": "_prices",
          "type": "uint256[1000]"
        }
      ],
      "payable": false,
      "stateMutability": "view",
      "type": "function"
    },
    {
      "constant": true,
      "inputs": [],
      "name": "getOwnedNotes",
      "outputs": [
        {
          "name": "",
          "type": "uint256[]"
        }
      ],
      "payable": false,
      "stateMutability": "view",
      "type": "function"
    },
    {
      "constant": false,
      "inputs": [
        {
          "name": "_id",
          "type": "uint256"
        },
        {
          "name": "_price",
          "type": "uint256"
        }
      ],
      "name": "setNotePrice",
      "outputs": [],
      "payable": false,
      "stateMutability": "nonpayable",
      "type": "function"
    },
    {
      "constant": false,
      "inputs": [
        {
          "name": "_id",
          "type": "uint256"
        },
        {
          "name": "_price",
          "type": "uint256"
        }
      ],
      "name": "purchaseNote",
      "outputs": [],
      "payable": true,
      "stateMutability": "payable",
      "type": "function"
    },
    {
      "constant": true,
      "inputs": [
        {
          "name": "_id",
          "type": "uint256"
        }
      ],
      "name": "getNoteInformation",
      "outputs": [
        {
          "name": "_pitches",
          "type": "uint256[4]"
        },
        {
          "name": "_duration",
          "type": "uint256"
        },
        {
          "name": "_composer",
          "type": "address"
        },
        {
          "name": "_forSale",
          "type": "bool"
        },
        {
          "name": "price",
          "type": "uint256"
        }
      ],
      "payable": false,
      "stateMutability": "view",
      "type": "function"
    },
    {
      "constant": false,
      "inputs": [
        {
          "name": "_id",
          "type": "uint256"
        }
      ],
      "name": "toggleForSale",
      "outputs": [],
      "payable": false,
      "stateMutability": "nonpayable",
      "type": "function"
    },
    {
      "constant": false,
      "inputs": [
        {
          "name": "_id",
          "type": "uint256"
        },
        {
          "name": "_duration",
          "type": "uint256"
        }
      ],
      "name": "setNoteDuration",
      "outputs": [],
      "payable": false,
      "stateMutability": "nonpayable",
      "type": "function"
    },
    {
      "constant": false,
      "inputs": [
        {
          "name": "_id",
          "type": "uint256"
        },
        {
          "name": "_pitches",
          "type": "uint256[4]"
        }
      ],
      "name": "setNotePitches",
      "outputs": [],
      "payable": false,
      "stateMutability": "nonpayable",
      "type": "function"
    },
    {
      "inputs": [
        {
          "name": "_initialPrice",
          "type": "uint256"
        },
        {
          "name": "_durationLockTime",
          "type": "uint256"
        },
        {
          "name": "_pitchLockTime",
          "type": "uint256"
        }
      ],
      "payable": false,
      "stateMutability": "nonpayable",
      "type": "constructor"
    }
  ],
  "bytecode": "0x6060604052341561000f57600080fd5b604051606080610f25833981016040528080519060200190919080519060200190919080519060200190919050506000428311801561004d57508282115b151561005857600080fd5b600090505b6103e881101561011657336000826103e88110151561007857fe5b6007020160050160006101000a81548173ffffffffffffffffffffffffffffffffffffffff021916908373ffffffffffffffffffffffffffffffffffffffff16021790555060016000826103e8811015156100cf57fe5b6007020160050160146101000a81548160ff021916908315150217905550836000826103e8811015156100fe57fe5b6007020160060181905550808060010191505061005d565b82611b598190555081611b5a8190555050505050610dec806101396000396000f30060606040526004361061008e576000357c0100000000000000000000000000000000000000000000000000000000900463ffffffff16806308d72102146100935780632d731b69146101c85780634585c26c14610232578063616855eb1461025e5780637bdb36aa1461027f578063a32018b91461032a578063db1786d51461034d578063ea07fd2714610379575b600080fd5b341561009e57600080fd5b6100a66103a3565b60405180866103e86000925b818410156100f85782846020020151600460200280838360005b838110156100e75780820151818401526020810190506100cc565b5050505090500192600101926100b2565b92505050856103e860200280838360005b83811015610124578082015181840152602081019050610109565b50505050905001846103e860200280838360005b83811015610153578082015181840152602081019050610138565b50505050905001836103e860200280838360005b83811015610182578082015181840152602081019050610167565b50505050905001826103e860200280838360005b838110156101b1578082015181840152602081019050610196565b505050509050019550505050505060405180910390f35b34156101d357600080fd5b6101db61057b565b6040518080602001828103825283818151815260200191508051906020019060200280838360005b8381101561021e578082015181840152602081019050610203565b505050509050019250505060405180910390f35b341561023d57600080fd5b61025c6004808035906020019091908035906020019091905050610623565b005b61027d60048080359060200190919080359060200190919050506106c7565b005b341561028a57600080fd5b6102a060048080359060200190919050506108b9565b6040518086600460200280838360005b838110156102cb5780820151818401526020810190506102b0565b505050509050018581526020018473ffffffffffffffffffffffffffffffffffffffff1673ffffffffffffffffffffffffffffffffffffffff168152602001831515151581526020018281526020019550505050505060405180910390f35b341561033557600080fd5b61034b60048080359060200190919050506109c6565b005b341561035857600080fd5b6103776004808035906020019091908035906020019091905050610aa1565b005b341561038457600080fd5b6103a1600480803590602001909190806080019091905050610b62565b005b6103ab610c44565b6103b3610c75565b6103bb610c9f565b6103c3610cdf565b6103cb610c75565b60008090505b6103e8811015610573576000816103e8811015156103eb57fe5b60070201600001600480602002604051908101604052809291908260048015610429576020028201915b815481526020019060010190808311610415575b505050505086826103e88110151561043d57fe5b60200201819052506000816103e88110151561045557fe5b600702016004015485826103e88110151561046c57fe5b6020020181815250506000816103e88110151561048557fe5b6007020160050160009054906101000a900473ffffffffffffffffffffffffffffffffffffffff1684826103e8811015156104bc57fe5b602002019073ffffffffffffffffffffffffffffffffffffffff16908173ffffffffffffffffffffffffffffffffffffffff16815250506000816103e88110151561050357fe5b6007020160050160149054906101000a900460ff1683826103e88110151561052757fe5b6020020190151590811515815250506000816103e88110151561054657fe5b600702016006015482826103e88110151561055d57fe5b60200201818152505080806001019150506103d1565b509091929394565b610583610d0b565b61058b610d0b565b611b5860003373ffffffffffffffffffffffffffffffffffffffff1673ffffffffffffffffffffffffffffffffffffffff16815260200190815260200160002080548060200260200160405190810160405280929190818152602001828054801561061557602002820191906000526020600020905b815481526020019060010190808311610601575b505050505090508091505090565b813373ffffffffffffffffffffffffffffffffffffffff166000826103e88110151561064b57fe5b6007020160050160009054906101000a900473ffffffffffffffffffffffffffffffffffffffff1673ffffffffffffffffffffffffffffffffffffffff1614151561069557600080fd5b611b5a54421015156106a657600080fd5b816000846103e8811015156106b757fe5b6007020160060181905550505050565b6000826000816103e8811015156106da57fe5b6007020160050160149054906101000a900460ff1615156106fa57600080fd5b611b5a544210151561070b57600080fd5b6000846103e88110151561071b57fe5b60070201600601549150813414151561073357600080fd5b600080856103e88110151561074457fe5b60070201600601819055506000846103e88110151561075f57fe5b6007020160050160009054906101000a900473ffffffffffffffffffffffffffffffffffffffff1673ffffffffffffffffffffffffffffffffffffffff166108fc839081150290604051600060405180830381858888f1935050505015156107c657600080fd5b3373ffffffffffffffffffffffffffffffffffffffff166000856103e8811015156107ed57fe5b6007020160050160009054906101000a90505050826000856103e88110151561081257fe5b6007020160060181905550600080856103e88110151561082e57fe5b6007020160050160146101000a81548160ff021916908315150217905550611b5860003373ffffffffffffffffffffffffffffffffffffffff1673ffffffffffffffffffffffffffffffffffffffff168152602001908152602001600020805480600101828161089e9190610d1f565b91600052602060002090016000869091909150555050505050565b6108c1610d4b565b6000806000806108cf610d4b565b6000876103e8811015156108df57fe5b6007020160000160048060200260405190810160405280929190826004801561091d576020028201915b815481526020019060010190808311610909575b505050505090508095506000876103e88110151561093757fe5b600702016004015494506000876103e88110151561095157fe5b6007020160050160009054906101000a900473ffffffffffffffffffffffffffffffffffffffff1693506000876103e88110151561098b57fe5b6007020160050160149054906101000a900460ff1692506000876103e8811015156109b257fe5b600702016006015491505091939590929450565b803373ffffffffffffffffffffffffffffffffffffffff166000826103e8811015156109ee57fe5b6007020160050160009054906101000a900473ffffffffffffffffffffffffffffffffffffffff1673ffffffffffffffffffffffffffffffffffffffff16141515610a3857600080fd5b611b5a5442101515610a4957600080fd5b6000826103e881101515610a5957fe5b6007020160050160149054906101000a900460ff16156000836103e881101515610a7f57fe5b6007020160050160146101000a81548160ff0219169083151502179055505050565b813373ffffffffffffffffffffffffffffffffffffffff166000826103e881101515610ac957fe5b6007020160050160009054906101000a900473ffffffffffffffffffffffffffffffffffffffff1673ffffffffffffffffffffffffffffffffffffffff16141515610b1357600080fd5b611b595442101515610b2457600080fd5b60018210158015610b36575060088211155b1515610b4157600080fd5b816000846103e881101515610b5257fe5b6007020160040181905550505050565b6000823373ffffffffffffffffffffffffffffffffffffffff166000826103e881101515610b8c57fe5b6007020160050160009054906101000a900473ffffffffffffffffffffffffffffffffffffffff1673ffffffffffffffffffffffffffffffffffffffff16141515610bd657600080fd5b611b5a5442101515610be757600080fd5b600091505b6004821015610c3e578282600481101515610c0357fe5b60200201356000856103e881101515610c1857fe5b6007020160000183600481101515610c2c57fe5b01819055508180600101925050610bec565b50505050565b6201f400604051908101604052806103e8905b610c5f610d73565b815260200190600190039081610c575790505090565b617d00604051908101604052806103e8905b6000815260200190600190039081610c875790505090565b617d00604051908101604052806103e8905b600073ffffffffffffffffffffffffffffffffffffffff16815260200190600190039081610cb15790505090565b617d00604051908101604052806103e8905b60001515815260200190600190039081610cf15790505090565b602060405190810160405280600081525090565b815481835581811511610d4657818360005260206000209182019101610d459190610d9b565b5b505050565b6080604051908101604052806004905b6000815260200190600190039081610d5b5790505090565b6080604051908101604052806004905b6000815260200190600190039081610d835790505090565b610dbd91905b80821115610db9576000816000905550600101610da1565b5090565b905600a165627a7a7230582014cad217d838283fb67a7863ef8599901f746d33ea0fd7a25ba1802dc21a94070029",
  "source": "pragma solidity ^0.4.17;\n\ncontract Opus {\n\n    //Note structure consisting of four pitches (Midi values from 0-128, 128 will represent a rest ), \n    //duration (value between 1 and 8: 1 = sixteenth, 2 = eight, 3 = dotted eigth, 4 = quarter, \n    //5 = dotted quarter, 6 = half, 7 = dotted half, 8 = whole,\n    // the owner of the note, and price set by owner\n    struct note {\n        uint[4] pitches;\n        uint duration;\n        address composer;\n        bool forSale;\n        uint price;\n    }\n\n    //The composition will consist of a fixed number of notes, number may be subject to change\n    note[1000] composition;\n    mapping (address => uint[]) ownedNoteIds;\n\n    uint durationLockTime;\n    uint pitchLockTime;\n\n    modifier noteForSale(uint _id) {\n        require(composition[_id].forSale);\n        _;\n    }\n\n    modifier onlyComposer(uint _id) {\n        require(composition[_id].composer == msg.sender);\n        _;\n    }\n\n    modifier beforeDurationLock() {\n        require(now < durationLockTime);\n        _;\n    }\n\n    modifier beforePitchLock() {\n        require(now < pitchLockTime);\n        _;\n    }\n\n    //Constructor that gives all notes to sender, sets them for sale, and sets their price to an initial value\n    function Opus(uint _initialPrice, uint _durationLockTime, uint _pitchLockTime) {\n\n        require(_durationLockTime > now && _pitchLockTime > _durationLockTime);\n\n        for (uint i = 0; i < 1000; i++) {\n            composition[i].composer = msg.sender;\n            composition[i].forSale = true;\n            composition[i].price = _initialPrice;\n        }\n\n        durationLockTime = _durationLockTime;\n        pitchLockTime = _pitchLockTime;\n    }\n\n    //lets owner of a note change the pitches, after a certain amount of time pitches will be locked, end of composition \n    function setNotePitches(uint _id, uint[4] _pitches) onlyComposer(_id) beforePitchLock() external {\n\n        for (uint i = 0; i < 4; i++) {\n            composition[_id].pitches[i] = _pitches[i];\n        }\n\n    }\n\n\n    //lets owner of note change the duration, after a certain amount of time durations will be locked\n    function setNoteDuration(uint _id, uint _duration) onlyComposer(_id) beforeDurationLock() external {\n\n        require(_duration >= 1 && _duration <= 8);\n\n        composition[_id].duration = _duration;\n\n    }\n\n    //lets someone purchase a note that is listed for sale, give it a new price. \n    function purchaseNote(uint _id, uint _price) noteForSale(_id) beforePitchLock() external payable {\n\n        uint price = composition[_id].price;\n        require(msg.value == price);\n\n        composition[_id].price = 0;\n\n        composition[_id].composer.transfer(price);\n\n        composition[_id].composer == msg.sender;\n        composition[_id].price = _price;\n        composition[_id].forSale = false;\n\n        ownedNoteIds[msg.sender].push(_id);\n    }\n\n    //set owned note for sale or not for sale\n    function toggleForSale(uint _id) onlyComposer(_id) beforePitchLock() external {\n        composition[_id].forSale = !composition[_id].forSale;\n    }\n\n    //set an owned notes price\n    function setNotePrice(uint _id, uint _price) onlyComposer(_id) beforePitchLock() external {\n        composition[_id].price = _price;\n    }\n\n    //get any notes owned by the sender\n    function getOwnedNotes() external view returns (uint[]) {\n\n        uint[] memory _ownedNotes = ownedNoteIds[msg.sender];\n\n        return _ownedNotes;\n    }\n\n    //get specific note information\n    function getNoteInformation(uint _id) external view returns (uint[4] _pitches,\n                                                                uint _duration,\n                                                                address _composer,\n                                                                bool _forSale,\n                                                                uint price\n                                                                ) {\n        uint[4] memory pitches = composition[_id].pitches;\n        _pitches = pitches;\n        _duration = composition[_id].duration;\n        _composer = composition[_id].composer;\n        _forSale = composition[_id].forSale;\n        price = composition[_id].price;\n    }\n\n    //get whole composition\n    function getComposition() external view returns (uint[4][1000] _pitches,\n                                                     uint[1000] _durations,\n                                                     address[1000] _composers,\n                                                     bool[1000] _forSales,\n                                                     uint[1000] _prices\n                                                    ) {\n        for (uint i = 0; i < 1000; i++) {\n            _pitches[i] = composition[i].pitches;\n\n            _durations[i] = composition[i].duration;\n            _composers[i] = composition[i].composer;\n            _forSales[i] = composition[i].forSale;\n            _prices[i] = composition[i].price;\n        }                                                                                               \n    }\n}",
  "sourcePath": "/Users/randytorres/Desktop/Projects/EthDevHackathon/contracts/Opus.sol",
  "compiler": {
    "name": "solc",
    "version": "0.4.18+commit.9cf6e910.Emscripten.clang"
  },
  "schemaVersion": "1.0.1",
  "updatedAt": "2017-12-05T03:50:47.060Z"
}