{
  "contractName": "Opus",
  "abi": [
    {
      "constant": true,
      "inputs": [],
      "name": "getComposition",
      "outputs": [
        {
          "name": "_composition",
          "type": "bool[128][100]"
        }
      ],
      "payable": false,
      "stateMutability": "view",
      "type": "function"
    },
    {
      "constant": false,
      "inputs": [
        {
          "name": "numNotes",
          "type": "uint256"
        }
      ],
      "name": "purchaseNote",
      "outputs": [],
      "payable": true,
      "stateMutability": "payable",
      "type": "function"
    },
    {
      "constant": false,
      "inputs": [
        {
          "name": "_pitch",
          "type": "uint256"
        },
        {
          "name": "_place",
          "type": "uint256"
        }
      ],
      "name": "placeNote",
      "outputs": [],
      "payable": false,
      "stateMutability": "nonpayable",
      "type": "function"
    },
    {
      "constant": false,
      "inputs": [
        {
          "name": "_pitch",
          "type": "uint256"
        },
        {
          "name": "_place",
          "type": "uint256"
        }
      ],
      "name": "removeNote",
      "outputs": [],
      "payable": false,
      "stateMutability": "nonpayable",
      "type": "function"
    },
    {
      "inputs": [
        {
          "name": "_endTime",
          "type": "uint256"
        }
      ],
      "payable": false,
      "stateMutability": "nonpayable",
      "type": "constructor"
    }
  ],
  "bytecode": "0x606060405261138861019055341561001657600080fd5b604051602080610b99833981016040528080519060200190919050503361019360006101000a81548173ffffffffffffffffffffffffffffffffffffffff021916908373ffffffffffffffffffffffffffffffffffffffff160217905550806101948190555061138861019181905550662386f26fc100006101928190555050610af4806100a56000396000f300606060405260043610610062576000357c0100000000000000000000000000000000000000000000000000000000900463ffffffff16806308d72102146100675780637de04ebd146100db578063af33f6b1146100f3578063b78a6bf21461011f575b600080fd5b341561007257600080fd5b61007a61014b565b604051808260646000925b818410156100cb5782846020020151608060200280838360005b838110156100ba57808201518184015260208101905061009f565b505050509050019260010192610085565b9250505091505060405180910390f35b6100f160048080359060200190919050506101ff565b005b34156100fe57600080fd5b61011d600480803590602001909190803590602001909190505061036a565b005b341561012a57600080fd5b61014960048080359060200190919080359060200190919050506105b9565b005b6101536109ad565b61015b6109ad565b6000606480602002604051908101604052809291906000905b828210156101f2578382600402016080806020026040519081016040528092919082608080156101de576020028201916000905b82829054906101000a900460ff161515815260200190600101906020826000010492830192600103820291508084116101a85790505b505050505081526020019060010190610174565b5050505090508091505090565b610194544210151561021057600080fd5b606481111580156102245750610191548111155b8015610234575061019254810234145b151561023f57600080fd5b600061019560003373ffffffffffffffffffffffffffffffffffffffff1673ffffffffffffffffffffffffffffffffffffffff1681526020019081526020016000205414156102d2578061019560003373ffffffffffffffffffffffffffffffffffffffff1673ffffffffffffffffffffffffffffffffffffffff1681526020019081526020016000208190555061035a565b8061019560003373ffffffffffffffffffffffffffffffffffffffff1673ffffffffffffffffffffffffffffffffffffffff168152602001908152602001600020540161019560003373ffffffffffffffffffffffffffffffffffffffff1673ffffffffffffffffffffffffffffffffffffffff168152602001908152602001600020819055505b8061019154036101918190555050565b6103726109dd565b610194544210151561038357600080fd5b8282600082101580156103965750608082105b15156103a157600080fd5b600081101580156103b25750606481105b15156103bd57600080fd5b600061019560003373ffffffffffffffffffffffffffffffffffffffff1673ffffffffffffffffffffffffffffffffffffffff16815260200190815260200160002054118015610440575060008560648110151561041757fe5b600402018460808110151561042857fe5b602091828204019190069054906101000a900460ff16155b151561044b57600080fd5b848360000181815250508383602001818152505033836040019073ffffffffffffffffffffffffffffffffffffffff16908173ffffffffffffffffffffffffffffffffffffffff168152505061019680548060010182816104ac9190610a15565b91600052602060002090600302016000859091909150600082015181600001556020820151816001015560408201518160020160006101000a81548173ffffffffffffffffffffffffffffffffffffffff021916908373ffffffffffffffffffffffffffffffffffffffff160217905550505050600160008660648110151561053157fe5b600402018560808110151561054257fe5b602091828204019190066101000a81548160ff02191690831515021790555061019560003373ffffffffffffffffffffffffffffffffffffffff1673ffffffffffffffffffffffffffffffffffffffff16815260200190815260200160002060008154809291906001900391905055505050505050565b600061019454421015156105cc57600080fd5b8282600082101580156105df5750608082105b15156105ea57600080fd5b600081101580156105fb5750606481105b151561060657600080fd5b60008560648110151561061557fe5b600402018460808110151561062657fe5b602091828204019190069054906101000a900460ff16801561064f575061064e858533610756565b5b151561065a57600080fd5b6000808660648110151561066a57fe5b600402018560808110151561067b57fe5b602091828204019190066101000a81548160ff0219169083151502179055506106a5858533610884565b9250610196838154811015156106b757fe5b906000526020600020906003020160008082016000905560018201600090556002820160006101000a81549073ffffffffffffffffffffffffffffffffffffffff0219169055505061019560003373ffffffffffffffffffffffffffffffffffffffff1673ffffffffffffffffffffffffffffffffffffffff168152602001908152602001600020600081548092919060010191905055505050505050565b6000806107616109dd565b600091505b61019680549050821015610876576101968281548110151561078457fe5b90600052602060002090600302016060604051908101604052908160008201548152602001600182015481526020016002820160009054906101000a900473ffffffffffffffffffffffffffffffffffffffff1673ffffffffffffffffffffffffffffffffffffffff1673ffffffffffffffffffffffffffffffffffffffff168152505090508581600001511480156108205750848160200151145b801561085b57508373ffffffffffffffffffffffffffffffffffffffff16816040015173ffffffffffffffffffffffffffffffffffffffff16145b15610869576001925061087b565b8180600101925050610766565b600092505b50509392505050565b60008061088f6109dd565b600091505b610196805490508210156109a357610196828154811015156108b257fe5b90600052602060002090600302016060604051908101604052908160008201548152602001600182015481526020016002820160009054906101000a900473ffffffffffffffffffffffffffffffffffffffff1673ffffffffffffffffffffffffffffffffffffffff1673ffffffffffffffffffffffffffffffffffffffff1681525050905085816000015114801561094e5750848160200151145b801561098957508373ffffffffffffffffffffffffffffffffffffffff16816040015173ffffffffffffffffffffffffffffffffffffffff16145b15610996578192506109a4565b8180600101925050610894565b5b50509392505050565b62064000604051908101604052806064905b6109c7610a47565b8152602001906001900390816109bf5790505090565b6060604051908101604052806000815260200160008152602001600073ffffffffffffffffffffffffffffffffffffffff1681525090565b815481835581811511610a4257600302816003028360005260206000209182019101610a419190610a72565b5b505050565b611000604051908101604052806080905b60001515815260200190600190039081610a585790505090565b610ac591905b80821115610ac15760008082016000905560018201600090556002820160006101000a81549073ffffffffffffffffffffffffffffffffffffffff021916905550600301610a78565b5090565b905600a165627a7a723058202bce7835edadefe47839ea74e56d3cf6b45b66eefa69bd6ffc4033dba5c1c0230029",
  "source": "pragma solidity ^0.4.17;\n\ncontract Opus {\n\n    struct noteId {\n        uint pitch;\n        uint place;\n        address placer;\n    }\n\n    bool[128][100] composition;\n\n    uint notes = 5000;\n    uint notesAvailable;\n    uint notePrice;\n\n    address owner;\n    uint endTime;\n\n    mapping (address => uint) ownedNotes;\n    noteId[] placedNotes;\n\n    uint durationLockTime;\n    uint pitchLockTime;\n    bool composingStarted;\n\n    modifier beforeEndTime() {\n        require(now < endTime);\n        _;\n    }\n\n    modifier isValidNote(uint _pitch, uint _place) {\n        require(_pitch >= 0 && _pitch < 128);\n        require(_place >= 0 && _place < 100);\n        _;\n    }\n\n    function Opus(uint _endTime) {\n        owner = msg.sender;\n\n        endTime = _endTime;\n\n        notesAvailable = 5000;\n        notePrice = 0.01 ether;\n    }\n\n    function purchaseNote(uint numNotes) beforeEndTime() external payable {\n        require(numNotes <= 100 && numNotes <= notesAvailable && msg.value == (numNotes * notePrice));\n\n        if (ownedNotes[msg.sender] == 0) {\n            ownedNotes[msg.sender] = numNotes;\n        }else {\n            ownedNotes[msg.sender] = ownedNotes[msg.sender] + numNotes;\n        }\n\n        notesAvailable = notesAvailable - numNotes;\n    }\n\n    function placeNote(uint _pitch, uint _place) beforeEndTime() isValidNote(_pitch, _place) external {\n        require(ownedNotes[msg.sender] > 0 && !composition[_pitch][_place]);\n\n        noteId memory note;\n        note.pitch = _pitch;\n        note.place = _place;\n        note.placer = msg.sender;\n\n        placedNotes.push(note);\n\n        composition[_pitch][_place] = true;\n        ownedNotes[msg.sender]--;\n    }\n\n    function removeNote(uint _pitch, uint _place) beforeEndTime() isValidNote(_pitch, _place) external {\n        require(composition[_pitch][_place] && noteOwner(_pitch, _place, msg.sender));\n\n        composition[_pitch][_place] = false;\n\n        uint noteIndex = getPlacedNoteIndex(_pitch, _place, msg.sender);\n\n        delete placedNotes[noteIndex];\n        ownedNotes[msg.sender]++;\n    }\n\n    function noteOwner(uint _pitch, uint _place, address sender) internal view returns (bool) {\n        for (uint i = 0; i < placedNotes.length; i++) {\n            noteId memory note = placedNotes[i];\n            if (note.pitch == _pitch && note.place == _place && note.placer == sender) {\n                return true;\n            }\n        }\n\n        return false;\n    }\n\n    function getPlacedNoteIndex(uint _pitch, uint _place, address sender) internal view returns (uint) {\n        for (uint i = 0; i < placedNotes.length; i++) {\n            noteId memory note = placedNotes[i];\n            if (note.pitch == _pitch && note.place == _place && note.placer == sender) {\n                return i;\n            }\n        }\n    }\n\n    function getComposition() external view returns (bool[128][100] _composition) {\n        bool[128][100] memory temp = composition;\n        return temp;\n    }\n\n    // function getPlacedNotes() external view returns (uint[] _pitches,\n    //                                                 uint[] _places) {\n    //     uint[] memory pitches;\n    //     uint[] memory places;\n\n    //     uint num = 0;\n        \n    //     for (uint i = 0; i < placedNotes.length; i++) {\n    //         if (placedNotes[i].placer == msg.sender) {\n    //             pitches[num] = placedNotes[i].pitch;\n    //             places[num] = placedNotes[i].place;\n    //             num++;  \n    //         }\n    //     }\n    // }\n\n\n}",
  "sourcePath": "/Users/nathanieloden/Documents/ethereum/comptest2/contracts/Opus.sol",
  "compiler": {
    "name": "solc",
    "version": "0.4.18+commit.9cf6e910.Emscripten.clang"
  },
  "schemaVersion": "1.0.1",
  "updatedAt": "2017-12-10T19:27:19.957Z"
}