{
  "contractName": "Opus",
  "abi": [
    {
      "constant": true,
      "inputs": [
        {
          "name": "_pitch",
          "type": "uint256"
        }
      ],
      "name": "getNoteLine",
      "outputs": [
        {
          "name": "",
          "type": "bool[100]"
        }
      ],
      "payable": false,
      "stateMutability": "view",
      "type": "function"
    },
    {
      "constant": true,
      "inputs": [],
      "name": "getOwnedNotes",
      "outputs": [
        {
          "name": "_notes",
          "type": "uint256"
        }
      ],
      "payable": false,
      "stateMutability": "view",
      "type": "function"
    },
    {
      "constant": false,
      "inputs": [],
      "name": "withdraw",
      "outputs": [],
      "payable": false,
      "stateMutability": "nonpayable",
      "type": "function"
    },
    {
      "constant": false,
      "inputs": [
        {
          "name": "numNotes",
          "type": "uint256"
        }
      ],
      "name": "purchaseNote",
      "outputs": [],
      "payable": true,
      "stateMutability": "payable",
      "type": "function"
    },
    {
      "constant": true,
      "inputs": [],
      "name": "getPlacedNotes",
      "outputs": [
        {
          "name": "",
          "type": "uint256[]"
        },
        {
          "name": "",
          "type": "uint256[]"
        }
      ],
      "payable": false,
      "stateMutability": "view",
      "type": "function"
    },
    {
      "constant": false,
      "inputs": [
        {
          "name": "_pitch",
          "type": "uint256"
        },
        {
          "name": "_place",
          "type": "uint256"
        }
      ],
      "name": "placeNote",
      "outputs": [],
      "payable": false,
      "stateMutability": "nonpayable",
      "type": "function"
    },
    {
      "constant": false,
      "inputs": [
        {
          "name": "_pitch",
          "type": "uint256"
        },
        {
          "name": "_place",
          "type": "uint256"
        }
      ],
      "name": "removeNote",
      "outputs": [],
      "payable": false,
      "stateMutability": "nonpayable",
      "type": "function"
    },
    {
      "constant": false,
      "inputs": [
        {
          "name": "numNotes",
          "type": "uint256"
        }
      ],
      "name": "returnNotes",
      "outputs": [],
      "payable": false,
      "stateMutability": "nonpayable",
      "type": "function"
    },
    {
      "constant": true,
      "inputs": [
        {
          "name": "_pitch",
          "type": "uint256"
        },
        {
          "name": "_place",
          "type": "uint256"
        }
      ],
      "name": "getNote",
      "outputs": [
        {
          "name": "",
          "type": "bool"
        }
      ],
      "payable": false,
      "stateMutability": "view",
      "type": "function"
    },
    {
      "inputs": [
        {
          "name": "_endTime",
          "type": "uint256"
        }
      ],
      "payable": false,
      "stateMutability": "nonpayable",
      "type": "constructor"
    }
  ],
  "bytecode": "0x606060405261138861340055341561001657600080fd5b6040516020806110a4833981016040528080519060200190919050503361340360006101000a81548173ffffffffffffffffffffffffffffffffffffffff021916908373ffffffffffffffffffffffffffffffffffffffff16021790555080613404819055506134005461340181905550662386f26fc100006134028190555050610ffe806100a66000396000f300606060405260043610610099576000357c0100000000000000000000000000000000000000000000000000000000900463ffffffff16806302ccee021461009e5780632d731b69146100fd5780633ccfd60b146101265780637de04ebd1461013b5780638bc19c0414610153578063af33f6b114610205578063b78a6bf214610231578063c1e472be1461025d578063db491e8014610280575b600080fd5b34156100a957600080fd5b6100bf60048080359060200190919050506102c4565b6040518082606460200280838360005b838110156100ea5780820151818401526020810190506100cf565b5050505090500191505060405180910390f35b341561010857600080fd5b610110610353565b6040518082815260200191505060405180910390f35b341561013157600080fd5b61013961039e565b005b610151600480803590602001909190505061048e565b005b341561015e57600080fd5b610166610565565b604051808060200180602001838103835285818151815260200191508051906020019060200280838360005b838110156101ad578082015181840152602081019050610192565b50505050905001838103825284818151815260200191508051906020019060200280838360005b838110156101ef5780820151818401526020810190506101d4565b5050505090500194505050505060405180910390f35b341561021057600080fd5b61022f6004808035906020019091908035906020019091905050610772565b005b341561023c57600080fd5b61025b60048080359060200190919080359060200190919050506109e0565b005b341561026857600080fd5b61027e6004808035906020019091905050610c51565b005b341561028b57600080fd5b6102aa6004808035906020019091908035906020019091905050610d93565b604051808215151515815260200191505060405180910390f35b6102cc610f18565b6102d4610f18565b6000836080811015156102e357fe5b60040201606480602002604051908101604052809291908260648015610343576020028201916000905b82829054906101000a900460ff1615158152602001906001019060208260000104928301926001038202915080841161030d5790505b5050505050905080915050919050565b600061340660003373ffffffffffffffffffffffffffffffffffffffff1673ffffffffffffffffffffffffffffffffffffffff16815260200190815260200160002054905080905090565b600061340454421115156103b157600080fd5b61340360009054906101000a900473ffffffffffffffffffffffffffffffffffffffff1673ffffffffffffffffffffffffffffffffffffffff163373ffffffffffffffffffffffffffffffffffffffff1614151561040e57600080fd5b3073ffffffffffffffffffffffffffffffffffffffff1631905061340360009054906101000a900473ffffffffffffffffffffffffffffffffffffffff1673ffffffffffffffffffffffffffffffffffffffff166108fc829081150290604051600060405180830381858888f19350505050151561048b57600080fd5b50565b613404544210151561049f57600080fd5b606481111580156104b35750613401548111155b80156104c3575061340254810234145b15156104ce57600080fd5b8061340660003373ffffffffffffffffffffffffffffffffffffffff1673ffffffffffffffffffffffffffffffffffffffff168152602001908152602001600020540161340660003373ffffffffffffffffffffffffffffffffffffffff1673ffffffffffffffffffffffffffffffffffffffff168152602001908152602001600020819055508061340154036134018190555050565b61056d610f43565b610575610f43565b600061057f610f43565b610587610f43565b600061340560003373ffffffffffffffffffffffffffffffffffffffff1673ffffffffffffffffffffffffffffffffffffffff168152602001908152602001600020805490509350836040518059106105dd5750595b90808252806020026020018201604052509250836040518059106105fe5750595b90808252806020026020018201604052509150600090505b61340560003373ffffffffffffffffffffffffffffffffffffffff1673ffffffffffffffffffffffffffffffffffffffff168152602001908152602001600020805490508110156107645761340560003373ffffffffffffffffffffffffffffffffffffffff1673ffffffffffffffffffffffffffffffffffffffff168152602001908152602001600020818154811015156106ae57fe5b90600052602060002090600202016000015483828151811015156106ce57fe5b906020019060200201818152505061340560003373ffffffffffffffffffffffffffffffffffffffff1673ffffffffffffffffffffffffffffffffffffffff1681526020019081526020016000208181548110151561072957fe5b906000526020600020906002020160010154828281518110151561074957fe5b90602001906020020181815250508080600101915050610616565b828295509550505050509091565b61077a610f57565b613404544210151561078b57600080fd5b82826000821015801561079e5750608082105b15156107a957600080fd5b600081101580156107ba5750606481105b15156107c557600080fd5b600061340660003373ffffffffffffffffffffffffffffffffffffffff1673ffffffffffffffffffffffffffffffffffffffff16815260200190815260200160002054118015610848575060008560808110151561081f57fe5b600402018460648110151561083057fe5b602091828204019190069054906101000a900460ff16155b151561085357600080fd5b848360000181815250508383602001818152505061340560003373ffffffffffffffffffffffffffffffffffffffff1673ffffffffffffffffffffffffffffffffffffffff16815260200190815260200160002080548060010182816108b99190610f71565b91600052602060002090600202016000859091909150600082015181600001556020820151816001015550505060016000866080811015156108f757fe5b600402018560648110151561090857fe5b602091828204019190066101000a81548160ff021916908315150217905550336102008660808110151561093857fe5b606402018560648110151561094957fe5b0160006101000a81548173ffffffffffffffffffffffffffffffffffffffff021916908373ffffffffffffffffffffffffffffffffffffffff16021790555061340660003373ffffffffffffffffffffffffffffffffffffffff1673ffffffffffffffffffffffffffffffffffffffff16815260200190815260200160002060008154809291906001900391905055505050505050565b600061340454421015156109f357600080fd5b828260008210158015610a065750608082105b1515610a1157600080fd5b60008110158015610a225750606481105b1515610a2d57600080fd5b600085608081101515610a3c57fe5b6004020184606481101515610a4d57fe5b602091828204019190069054906101000a900460ff168015610adc57503373ffffffffffffffffffffffffffffffffffffffff1661020086608081101515610a9157fe5b6064020185606481101515610aa257fe5b0160009054906101000a900473ffffffffffffffffffffffffffffffffffffffff1673ffffffffffffffffffffffffffffffffffffffff16145b1515610ae757600080fd5b60008086608081101515610af757fe5b6004020185606481101515610b0857fe5b602091828204019190066101000a81548160ff021916908315150217905550600061020086608081101515610b3957fe5b6064020185606481101515610b4a57fe5b0160006101000a81548173ffffffffffffffffffffffffffffffffffffffff021916908373ffffffffffffffffffffffffffffffffffffffff160217905550610b94858533610dd8565b9250608161340560003373ffffffffffffffffffffffffffffffffffffffff1673ffffffffffffffffffffffffffffffffffffffff16815260200190815260200160002084815481101515610be557fe5b90600052602060002090600202016000018190555061340660003373ffffffffffffffffffffffffffffffffffffffff1673ffffffffffffffffffffffffffffffffffffffff168152602001908152602001600020600081548092919060010191905055505050505050565b60006134045442101515610c6457600080fd5b61340660003373ffffffffffffffffffffffffffffffffffffffff1673ffffffffffffffffffffffffffffffffffffffff168152602001908152602001600020548211151515610cb357600080fd5b61340254820290508161340660003373ffffffffffffffffffffffffffffffffffffffff1673ffffffffffffffffffffffffffffffffffffffff168152602001908152602001600020540361340660003373ffffffffffffffffffffffffffffffffffffffff1673ffffffffffffffffffffffffffffffffffffffff16815260200190815260200160002081905550816134015401613401819055503373ffffffffffffffffffffffffffffffffffffffff166108fc829081150290604051600060405180830381858888f193505050501515610d8f57600080fd5b5050565b600080600084608081101515610da557fe5b6004020183606481101515610db657fe5b602091828204019190069054906101000a900460ff1690508091505092915050565b600080600090505b61340560003373ffffffffffffffffffffffffffffffffffffffff1673ffffffffffffffffffffffffffffffffffffffff16815260200190815260200160002080549050811015610f0f578461340560008573ffffffffffffffffffffffffffffffffffffffff1673ffffffffffffffffffffffffffffffffffffffff16815260200190815260200160002082815481101515610e7957fe5b906000526020600020906002020160000154148015610ef557508361340560008573ffffffffffffffffffffffffffffffffffffffff1673ffffffffffffffffffffffffffffffffffffffff16815260200190815260200160002082815481101515610ee157fe5b906000526020600020906002020160010154145b15610f0257809150610f10565b8080600101915050610de0565b5b509392505050565b610c80604051908101604052806064905b60001515815260200190600190039081610f295790505090565b602060405190810160405280600081525090565b604080519081016040528060008152602001600081525090565b815481835581811511610f9e57600202816002028360005260206000209182019101610f9d9190610fa3565b5b505050565b610fcf91905b80821115610fcb57600080820160009055600182016000905550600201610fa9565b5090565b905600a165627a7a723058202998df1fde1abc6325414e325c76861e06275355c0ab37d9657b355a3273d0bf0029",
  "source": "pragma solidity ^0.4.17;\n\ncontract Opus {\n    //struct to hold placed note Ids\n    struct noteId {\n        uint pitch;\n        uint place;\n    }\n\n    //2d graph of notes and places, represents midi values 0-127 and position,\n    bool[100][128] composition;\n    //2d graph representing who owns a placed note\n    address[100][128] composers;\n\n    //total notes availble\n    uint notes = 5000;\n    //notes available for purchase\n    uint notesAvailable;\n    //individual note price\n    uint notePrice;\n    \n    //owner of contract\n    address owner;\n    //time when composing freezes\n    uint endTime;\n\n    //keeps track of notes placed by an address\n    mapping (address => noteId[]) ownedNotes;\n    //keeps track of an addresses remaing notes\n    mapping (address => uint) noteBalances;\n\n    modifier beforeEndTime() {\n        require(now < endTime);\n        _;\n    }\n\n    modifier afterEndTime() {\n        require(now > endTime);\n        _;\n    }\n\n    modifier isValidNote(uint _pitch, uint _place) {\n        require(_pitch >= 0 && _pitch < 128);\n        require(_place >= 0 && _place < 100);\n        _;\n    }\n    \n    //constructor\n    function Opus(uint _endTime) {\n        owner = msg.sender;\n\n        endTime = _endTime;\n\n        notesAvailable = notes;\n        notePrice = 0.01 ether;\n    }\n\n    //function to purchase notes, limited to 100 per purchase\n    function purchaseNote(uint numNotes) beforeEndTime() external payable {\n        require(numNotes <= 100 && numNotes <= notesAvailable && msg.value == (numNotes * notePrice));\n\n        noteBalances[msg.sender] = noteBalances[msg.sender] + numNotes;\n\n        notesAvailable = notesAvailable - numNotes;\n    }\n\n    //return unused notes;\n    function returnNotes(uint numNotes) beforeEndTime() external {\n        require(numNotes <= noteBalances[msg.sender]);\n\n        uint amount = (numNotes * notePrice);\n        noteBalances[msg.sender] = noteBalances[msg.sender] - numNotes;\n        notesAvailable = notesAvailable + numNotes;\n\n        msg.sender.transfer(amount);\n\n    }\n\n    //places a vaild note in the composition\n    function placeNote(uint _pitch, uint _place) beforeEndTime() isValidNote(_pitch, _place) external {\n        require(noteBalances[msg.sender] > 0 && !composition[_pitch][_place]);\n\n        noteId memory note;\n        note.pitch = _pitch;\n        note.place = _place;\n\n        ownedNotes[msg.sender].push(note);\n\n        composition[_pitch][_place] = true;\n        composers[_pitch][_place] = msg.sender;\n\n        noteBalances[msg.sender]--;\n    }\n\n    //removes owned note from composition\n    function removeNote(uint _pitch, uint _place) beforeEndTime() isValidNote(_pitch, _place) external {\n        require(composition[_pitch][_place] && composers[_pitch][_place] == msg.sender);\n\n        composition[_pitch][_place] = false;\n        composers[_pitch][_place] = 0x0;\n\n        uint noteIndex = getOwnedNoteIndex(_pitch, _place, msg.sender);\n\n        ownedNotes[msg.sender][noteIndex].pitch = 129;\n        noteBalances[msg.sender]++;\n    }\n\n    function getOwnedNoteIndex(uint _pitch, uint _place, address sender) internal view returns (uint) {\n        for (uint i = 0; i < ownedNotes[msg.sender].length; i++) {\n            if (ownedNotes[sender][i].pitch == _pitch && ownedNotes[sender][i].place == _place) {\n                return i;\n            }\n        }\n    }\n\n    //gets a line in the composition for viewing purposes and to prevent having to get the whole composition at once\n    function getNoteLine(uint _pitch) external view returns (bool[100]) {\n        bool[100] memory line = composition[_pitch];\n        return line;\n    }\n\n    //get note balance of sender\n    function getOwnedNotes() external view returns (uint _notes) {\n        _notes = noteBalances[msg.sender];\n        return _notes;\n    }\n\n    //returns whether or note a note exists at a pitch and place\n    function getNote(uint _pitch, uint _place) external view returns (bool) {\n        bool _note = composition[_pitch][_place];\n        return _note; \n    }\n\n    //returns notes placed by sender\n    function getPlacedNotes() external view returns (uint[], uint[]) {\n        uint length = ownedNotes[msg.sender].length;\n\n        uint[] memory pitches = new uint[](length);\n        uint[] memory places = new uint[](length);\n        \n        for (uint i = 0; i < ownedNotes[msg.sender].length; i++) {\n            pitches[i] = ownedNotes[msg.sender][i].pitch;\n            places[i] = ownedNotes[msg.sender][i].place;\n        }\n\n        return (pitches,places);\n    }\n\n    //withdraw balance after composing is done\n    function withdraw() afterEndTime() external {\n        require(msg.sender == owner);\n\n        uint amount = this.balance;\n\n        owner.transfer(amount);\n    }\n}",
  "sourcePath": "/Users/nathanieloden/Documents/GitHub/EthDevHackathon/contracts/Opus.sol",
  "compiler": {
    "name": "solc",
    "version": "0.4.18+commit.9cf6e910.Emscripten.clang"
  },
  "schemaVersion": "1.0.1",
  "updatedAt": "2017-12-12T22:08:17.250Z"
}